:020000040800F2
:1000000018090020D907000835080008350800083D
:100010003508000835080008350800080000000011
:10002000000000000000000000000000350800088B
:10003000350800080000000035080008150D00080C
:10004000350800083508000835080008350800089C
:10005000350800083508000835080008350800088C
:10006000350800083508000835080008350800087C
:10007000350800083508000835080008350800086C
:10008000350800083508000835080008350800085C
:10009000350800083508000835080008350800084C
:1000A000350800083508000835080008350800083C
:1000B000350800083D080008350800083508000824
:1000C000350800083508000835080008350800081C
:1000D000350800083508000835080008350800080C
:1000E00035080008350800083508000835080008FC
:1000F00035080008350800083508000835080008EC
:1001000035080008350800083508000835080008DB
:1001100035080008350800083508000835080008CB
:1001200035080008350800083508000835080008BB
:1001300035080008350800083508000835080008AB
:10014000350800083508000835080008350800089B
:10015000350800083508000835080008350800088B
:10016000350800083508000835080008350800087B
:10017000350800083508000835080008350800086B
:10018000350800083508000880B500AF0A4B012289
:100190001A60094B00221A71074B00229A71064B14
:1001A00003225A71044B0022DA710349034800F01C
:1001B00029FE00BF80BD00BFD0000020000002402B
:1001C00080B582B000AF786039600121022000F074
:1001D0003DFC3B680B4A53607B689AB2094B1A801E
:1001E000084B00221A81074B00225A800549064815
:1001F00001F018F90121044801F07EF900BF083729
:10020000BD4680BD840000200004004080B500AFE2
:100210004FF4C06000F0C2FF0C4B1D221A700B4B54
:1002200000225A70094B00229A70084B0122DA70A2
:10023000064800F0C5FF0121054801F0CBF9012275
:100240000121034801F078F900BF80BDE8000020DB
:100250000004004080B584B000AF78600B46FB70AE
:10026000FB78FB73FB7B002B03D1786800F0F8F878
:1002700067E0FB7B012B03D1786800F0FFF860E0BA
:10028000FB7B022B03D1786800F006F959E0FB7B79
:10029000032B03D1786800F00DF952E0FB7B042BAF
:1002A00003D1786800F014F94BE0FB7B052B03D1F8
:1002B000786800F033F944E0FB7B062B03D17868C3
:1002C00000F052F93DE0FB7B072B03D1786800F08A
:1002D00073F936E0FB7B082B03D1786800F094F9C2
:1002E0002FE0FB7B092B03D1786800F0B5F928E0FB
:1002F000FB7B0A2B03D1786800F0D4F921E0FB7B6B
:100300000B2B03D1786800F0DBF91AE0FB7B0C2B98
:1003100003D1786800F0E2F913E0FB7B0D2B03D1E9
:10032000786800F0E9F90CE0FB7B0E2B03D17868CC
:1003300000F0F0F905E0FB7B0F2B02D1786800F0AC
:100340000FFA786800F004F800BF1037BD4680BD92
:1003500080B58CB000AF786000237B770023BB6250
:1003600000237B6200233B62012387F82C300023AB
:100370003B777B68214A934208D1214A204B5B6C32
:1003800043F4807353640023BB6118E07B681D4A0B
:10039000934208D11A4A1A4B5B6C43F400735364BE
:1003A0000023BB610BE07B68174A934207D1144AD4
:1003B000134B5B6C43F4806353640023BB610023E5
:1003C0003B610023BB604FF48033FB604FF440730C
:1003D0007B6107F10803184600F0AAFB07F1180338
:1003E0001946786800F050FB7B689B6843F0010277
:1003F0007B689A6000BF3037BD4680BD0020014059
:1004000000380240002101400022014080B584B044
:1004100000AF78600B46FB7040F6FF73FB60F97825
:1004200001230122786800F0ABFB7B689B6843F0F6
:1004300080427B689A6006E0FB685A1EFA60002BD7
:1004400001D1002308E07B681B6803F00203002B46
:10045000F2D07B68DB6C9BB218461037BD4680BD7E
:1004600080B582B000AF78600121034800F0A0F9A8
:1004700000BF0837BD4680BD0000024080B582B095
:1004800000AF78600221034800F092F900BF0837FE
:10049000BD4680BD0000024080B582B000AF7860EC
:1004A0000421034800F084F900BF0837BD4680BD31
:1004B0000000024080B582B000AF78600821034898
:1004C00000F076F900BF0837BD4680BD000002404D
:1004D00080B582B000AF78607B680B4A934203D04E
:1004E0007B680A4A934203D11021094800F060F961
:1004F0007B68084A934203D14021074800F058F92D
:1005000000BF0837BD4680BD0020014000210140EA
:1005100000000240002201400014024080B582B079
:1005200000AF78607B680B4A934203D07B680A4A2D
:10053000934203D12021094800F03AF97B68084A28
:10054000934203D18021074800F032F900BF0837F9
:10055000BD4680BD00200140002101400000024056
:10056000002201400014024080B582B000AF7860E4
:100570007B680C4A934203D07B680B4A934203D1B9
:1005800040210A4800F014F97B68094A934204D1DB
:100590004FF48071074800F00BF900BF0837BD46E3
:1005A00080BD00BF0020014000210140000002404A
:1005B000002201400014024080B582B000AF786094
:1005C0007B680C4A934203D07B680B4A934203D169
:1005D00080210A4800F0ECF87B68094A934204D174
:1005E0004FF40071074800F0E3F800BF0837BD463C
:1005F00080BD00BF002001400021014000000240FA
:10060000002201400014024080B582B000AF786043
:100610007B680C4A934203D07B680B4A934203D118
:1006200001210A4800F0C4F87B68094A934204D1CA
:100630004FF48061074800F0BBF800BF0837BD46A3
:1006400080BD00BF002001400021014000040240A5
:10065000002201400014024080B582B000AF7860F3
:100660007B680B4A934203D07B680A4A934203D1CA
:100670000221094800F09CF87B68084A934203D1A4
:100680000821074800F094F800BF0837BD4680BD38
:1006900000200140002101400004024000220140EE
:1006A0000014024080B582B000AF78600121034899
:1006B00000F07EF800BF0837BD4680BD000802404C
:1006C00080B582B000AF78600221034800F070F876
:1006D00000BF0837BD4680BD0008024080B582B02B
:1006E00000AF78600421034800F062F800BF0837CB
:1006F000BD4680BD0008024080B582B000AF786082
:100700000821034800F054F800BF0837BD4680BDFB
:100710000008024080B582B000AF78607B680B4A69
:10072000934203D07B680A4A934203D110210948BF
:1007300000F03EF87B68084A934203D11021074835
:1007400000F036F800BF0837BD4680BD00200140EC
:100750000021014000080240002201400014024034
:1007600080B582B000AF78607B680C4A934203D0BA
:100770007B680B4A934204D120210A4800F018F804
:1007800007E07B68084A934203D12021074800F024
:100790000FF800BF0837BD4680BD00BF00200140F4
:1007A00000210140000802400022014000140240E4
:1007B00080B584B002AF78600B467B8079880123D6
:1007C00001930223009300230322786800F058FD70
:1007D00000BF0837BD4680BD80B582B000AF104B6A
:1007E0007B60104B3B6007E03B681A1D3A607A68FB
:1007F000111D796012681A603B680B4A9342F3D36B
:100800000A480B494FF000028842B8BF40F8042B59
:10081000FADB00F02BF800BF0837BD4680BD00BFF3
:10082000981E00080000002020000020200000206A
:100830001801002080B400AFFEE700BF80B500AF14
:100840000121084800F09CFE0346002B08D0064B0F
:100850001B680133044A13600121024800F0BAFE0C
:1008600000BF80BD000400403000002098B500AFFC
:1008700000F070FB00F09CFB03216548FFF7EAFCE9
:100880000B216448FFF7E6FCFFF77EFC49F63F4189
:100890000120FFF795FCFFF7B9FC01215E4800F04D
:1008A0003FFB0346012BF8D101215B4800F038FBE8
:1008B0000346012B16D1594B00221A60584A4FF0BB
:1008C00000034FF00004C2E90034564A4FF0000321
:1008D0004FF00004C2E90034534B00221A60534B1E
:1008E00000221A6003214A48FFF790FD034618468C
:1008F00000F0D2FF03460C464D4AC2E900340B21FA
:100900004448FFF783FD03463233184600F0C4FF26
:1009100003460C46474AC2E90034474B1B68002B8C
:1009200068D1434BD3E90001424BD3E900341A4666
:10093000234601F0A7FA0346002B40D03B4B1B682F
:10094000002B3CD1354B1B68002B0DD1364B0022C0
:100950001A60324B01221A60334B1B68374A13600E
:10096000354B01221A6027E02F4B1B68184600F018
:1009700093FF4FF00002324B01F01EF903460C4684
:10098000284AC2E900342F4BD3E90001254BD3E9B3
:1009900000341A46234601F00FF903460C46204A5C
:1009A000C2E900341D4B00221A601F4B1B68234A0A
:1009B0001360214B01221A601C4B01221A601C4B50
:1009C000D3E900011B4BD3E900341A46234601F05A
:1009D0003BFA0346002B0DD0144B1B68012B09D1A9
:1009E000124B00221A60104B1B68144A1360124B02
:1009F00001221A600C4B1A68104B1B68D21A124B5A
:100A00001B689A427FF750AF0B4B00221A604BE7EE
:100A1000002001400021014000000240340000207D
:100A20002000002028000020300000203800002096
:100A30000801002010010020400000203C000020A0
:100A400000408F40000000200800002080B483B0E8
:100A500000AF78600B46FB70FB78002B06D009498D
:100A6000084B1A6C7B6813430B6406E00549054B81
:100A70001A6C7B68DB4313400B6400BF0C37BD4628
:100A800080BC70470038024080B485B000AF786009
:100A900039600023FB600023FB727B685B68FB60AE
:100AA000FB6823F0407323F48073FB603B681B7981
:100AB0001A023B681B681343FA681343FB607B68A8
:100AC000FA685A607B689B68FB60FA68174B1340B2
:100AD000FB603B681A693B68DB681A433B689B68AC
:100AE0001A433B685B795B001343FA681343FB606E
:100AF0007B68FA689A607B68DB6AFB60FB6823F4BA
:100B00007003FB603B681B7D013BDAB2FB7A134349
:100B1000FB72FB7A1B05FA681343FB607B68FA687B
:100B2000DA6200BF1437BD4680BC7047FDF7FFC0D6
:100B300080B485B000AF78600023FB600E4B5B682B
:100B4000FB60FA680D4B1340FB607B681A687B689A
:100B50005B681A437B689B681A437B68DB681343B6
:100B6000FA681343FB60044AFB68536000BF143704
:100B7000BD4680BC704700BF00230140E030FCFF51
:100B800080B485B000AF7860084611461A46034627
:100B9000FB700B46BB7013467B700023FB60002389
:100BA000BB60FB78092B23D97B68DB68FB60FB7893
:100BB000A3F10A0213465B001344072202FA03F36F
:100BC000BB60BB68DB43FA681340FB607978FB7855
:100BD000A3F10A0213465B00134401FA03F3BB605E
:100BE000FA68BB681343FB607B68FA68DA601EE052
:100BF0007B681B69FB60FA7813465B00134407228D
:100C000002FA03F3BB60BB68DB43FA681340FB6086
:100C10007978FA7813465B00134401FA03F3BB605A
:100C2000FA68BB681343FB607B68FA681A61BB789B
:100C3000062B21D87B685B6BFB60BB785A1E134682
:100C40009B0013441F2202FA03F3BB60BB68DB4323
:100C5000FA681340FB60F978BB785A1E13469B0074
:100C6000134401FA03F3BB60FA68BB681343FB60EB
:100C70007B68FA685A6347E0BB780C2B21D87B6805
:100C80001B6BFB60BB78DA1F13469B0013441F22CB
:100C900002FA03F3BB60BB68DB43FA681340FB60F6
:100CA000F978BB78DA1F13469B00134401FA03F36B
:100CB000BB60FA68BB681343FB607B68FA681A6321
:100CC00022E07B68DB6AFB60BB78A3F10D02134670
:100CD0009B0013441F2202FA03F3BB60BB68DB4393
:100CE000FA681340FB60F978BB78A3F10D02134654
:100CF0009B00134401FA03F3BB60FA68BB6813431B
:100D0000FB607B68FA68DA6200BF1437BD4680BCBE
:100D1000704700BF80B582B000AF374B1B6801330E
:100D2000354A1360354B1B68002B04D0334B1B68CE
:100D3000013B324A1360AFF300800023FB7152E0A5
:100D4000FB792F4A9B0013445B68002B48D0FB794A
:100D50002B4A9B0013445B681B7B002B40D0FB7924
:100D6000274A9B0013445B689B68002B38D0FB79B3
:100D7000234A9B0013445B689A68013A9A60FB79A6
:100D80001F4A9B0013445B689B68002B28D1FB79AA
:100D90001B4A9B0013445B681A69FB7918499B0046
:100DA0000B445B685B6918469047FB79144A9B00CB
:100DB00013445A68FB7912499B000B445B681B681B
:100DC0009360FB790E4A9B0013445B685B68002BC1
:100DD00006D1FB790A4A9B0013445B6800221A7310
:100DE000FB790133FB71064B1B78FA799A42A7D342
:100DF00000BF0837BD4680BD480000204C000020E1
:100E00005400002080B487B000AF786039600023C0
:100E10007B6100233B610023FB6000237B6176E064
:100E200001227B6902FA03F33B613B681A683B6964
:100E30001340FB60FA683B699A4265D17B681A6887
:100E40007B695B00032101FA03F3DB431A407B68F3
:100E50001A607B681A683B681B7919467B695B00DE
:100E600001FA03F31A437B681A603B681B79012B74
:100E700003D03B681B79022B2ED17B689A687B6973
:100E80005B00032101FA03F3DB431A407B689A609D
:100E90007B689A683B685B7919467B695B0001FA5D
:100EA00003F31A437B689A607B685A687B699BB23C
:100EB000194601238B40DB431A407B685A607B68EC
:100EC0005B683A68927911467A6992B201FA02F245
:100ED00092B21A437B685A607B68DA687B699BB27E
:100EE0005B00032101FA03F3DB431A407B68DA60FD
:100EF0007B68DA683B68DB7919467B695B0001FA3D
:100F000003F31A437B68DA607B6901337B617B6999
:100F10000F2B85D900BF1C37BD4680BC704700BF72
:100F200080B485B000AF78600B467B800023FB73F4
:100F30007B681A697B881340002B02D00123FB7366
:100F400001E00023FB73FB7B18461437BD4680BCD1
:100F5000704700BF80B500AF124A124B1B6843F0C8
:100F6000010313600F4B00229A600E4A0D4B1B6861
:100F700023F0847323F4803313600A4B0A4A5A60C7
:100F8000084A084B1B6823F480231360054B00229A
:100F9000DA6000F089F8054B4FF000629A6000BFFC
:100FA00080BD00BF003802401030002400ED00E09A
:100FB00080B487B000AF00233B6100237B61022334
:100FC000FB600023BB6002237B60324B9B6803F015
:100FD0000C033B613B69042B07D0082B09D0002B85
:100FE0003FD12D4B2D4A1A603FE02B4B2C4A1A6003
:100FF0003BE0284B5B6803F480039B0DBB60254BF3
:101000005B6803F03F037B60BB68002B0DD0244A74
:101010007B68B2FBF3F21F4B596847F6C0730B4075
:101020009B0903FB02F37B610CE01C4A7B68B2FB6B
:10103000F3F2184B596847F6C0730B409B0903FB4A
:1010400002F37B61134B5B6803F440331B0C0133E9
:101050005B00FB607A69FB68B2FBF3F30E4A136036
:1010600003E00D4B0D4A1A6000BF0A4B9B6803F06A
:10107000F0031B090B4AD35CDBB23B61064B1A68D9
:101080003B6922FA03F3044A136000BF1C37BD46D4
:1010900080BC7047003802400C0000200024F4009F
:1010A00000127A001000002080B483B000AF00234B
:1010B0007B6000233B60354A344B1B6843F480332C
:1010C0001360324B1B6803F400333B607B680133D1
:1010D0007B603B68002B03D17B68B3F5A06FF0D138
:1010E0002A4B1B6803F40033002B02D001233B6022
:1010F00001E000233B603B68012B42D1234A234B94
:101100001B6C43F080531364214A214B1B6843F44A
:10111000804313601D4A1D4B9B6893601B4A1B4B09
:101120009B6843F400439360184A184B9B6843F450
:10113000A0539360154B174A5A60144A134B1B680F
:1011400043F08073136000BF104B1B6803F0007303
:10115000002BF9D0104B40F205621A600B4A0B4B82
:101160009B6823F003039360084A084B9B6843F095
:101170000203936000BF054B9B6803F00C03082B30
:10118000F9D100BF0C37BD4680BC70470038024023
:101190000070004008544007003C024080B483B017
:1011A00000AF7860054A7B6843F0BF6343F40033C7
:1011B000D36000BF0C37BD4680BC704700ED00E037
:1011C00080B485B000AF78600023FB730023BB734D
:1011D0000F237B737B68DB78002B38D0264BDB68D2
:1011E000DB4303F4E0631B0AFB73FB7BC3F10403E3
:1011F000BB737A7BFB7B42FA03F37B737B685B7880
:101200001A46BB7B02FA03F3FB737B689A787B7BFD
:101210001340DAB2FB7B1343FB73FB7B1B01FB73B5
:10122000164A7B681B781344FA7B83F80023134A21
:101230007B681B785B09DBB218467B681B7803F080
:101240001F03012101FA03F342F820300FE00B499C
:101250007B681B785B09DBB218467B681B7803F060
:101260001F0301229A4000F1200341F8232000BF10
:101270001437BD4680BC704700ED00E000E100E09F
:1012800080B584B002AF7860084611461A4603461E
:101290007B800B467B7013463B707B88002B0ED007
:1012A000786800F021F838787A7879883B7D019366
:1012B0003B7C00930346786800F02EF800E000BF06
:1012C0000837BD4680BD00BF80B483B000AF7860F2
:1012D0007B6803F13F4303F57E039B0A9BB21846EC
:1012E0000C37BD4680BC704780B582B000AF7860D7
:1012F0007868FFF7E9FF03461A46012303FA02F173
:10130000044A044B1B6B0B43136300BF0837BD46F5
:1013100080BD00BF0038024080B584B000AF786067
:10132000084611461A4603467B800B467B701346DF
:101330003B707868FFF7C8FF0346BB730023FB735D
:1013400067E07A88FB7B42FA03F303F00103002B8A
:101350005BD0BB7BBA7B324931F8122011B2FA7BE9
:10136000012000FA02F212B20A4312B291B22C4AE0
:1013700022F813107B68DB68FA7B5200032101FA24
:1013800002F2D2431340397EFA7B520001FA02F294
:101390001A437B68DA607B681A68FB7B5B00032179
:1013A00001FA03F3DB4313407978FA7B520001FA28
:1013B00002F21A437B681A607B78012B02D07B789B
:1013C000022B23D17B685B68FA7B012101FA02F2D0
:1013D00092B2D24313403978FA7B01FA02F292B208
:1013E0001A437B685A607B689A68FB7B5B00032129
:1013F00001FA03F3DB431340397FFA7B520001FA11
:1014000002F21A437B689A6000E000BFFB7B013365
:10141000FB73FB7B0F2B94D900BF1037BD4680BDFB
:101420006C00002080B485B000AF78603960002384
:10143000FB817B681B88FB817B68284A934213D021
:101440007B68274A93420FD07B68B3F1804F0BD063
:101450007B68244A934207D07B68234A934203D097
:101460007B68224A934208D1FB8923F07003FB81F9
:101470003B685A88FB891343FB817B681C4A934273
:101480000CD07B681B4A934208D0FB8923F440733D
:10149000FB813B681A89FB891343FB817B68FA89CE
:1014A0001A803B685A687B68DA623B681A887B68F6
:1014B0001A857B68094A934203D07B68084A9342A5
:1014C00004D13B689B7A9AB27B681A867B680122BA
:1014D0009A8200BF1437BD4680BC704700000140AF
:1014E000000401400004004000080040000C0040DF
:1014F000001000400014004080B483B000AF78605A
:101500000B46FB70FB78002B08D07B681B889BB2D6
:1015100043F001039AB27B681A8007E07B681B885E
:101520009BB223F001039AB27B681A8000BF0C378C
:10153000BD4680BC704700BF80B483B000AF786008
:101540000B467B8013467B707B78002B08D07B6832
:101550009B899AB27B8813439AB27B689A8109E08F
:101560007B689B899AB27B88DB439BB213409AB21B
:101570007B689A8100BF0C37BD4680BC704700BFB6
:1015800080B485B000AF78600B467B800023FB738E
:101590000023BB8100237B817B681B8A9AB27B88F6
:1015A0001340BB817B689B899AB27B8813407B8107
:1015B000BB89002B05D07B89002B02D00123FB7354
:1015C00001E00023FB73FB7B18461437BD4680BC4B
:1015D000704700BF80B483B000AF78600B467B805B
:1015E0007B88DB439AB27B681A8200BF0C37BD460A
:1015F00080BC704781F0004102E000BF83F00043EF
:1016000030B54FEA41044FEA430594EA050F08BF9D
:1016100090EA020F1FBF54EA000C55EA020C7FEA61
:10162000645C7FEA655C00F0E2804FEA5454D4EBDE
:101630005555B8BF6D420CDD2C4480EA020281EAA8
:10164000030382EA000083EA010180EA020281EAE0
:101650000303362D88BF30BD11F0004F4FEA013132
:101660004FF4801C4CEA113102D0404261EB410141
:1016700013F0004F4FEA03334CEA133302D05242C7
:1016800063EB430394EA050F00F0A780A4F1010483
:10169000D5F1200E0DDB02FA0EFC22FA05F28018BD
:1016A00041F1000103FA0EF2801843FA05F35941A3
:1016B0000EE0A5F120050EF1200E012A03FA0EFC22
:1016C00028BF4CF0020C43FA05F3C01851EBE3714C
:1016D00001F0004507D54FF0000EDCF1000C7EEB69
:1016E00000006EEB0101B1F5801F1BD3B1F5001FA7
:1016F0000CD349085FEA30004FEA3C0C04F10104C6
:101700004FEA445212F5800F80F09A80BCF1004FEE
:1017100008BF5FEA500C50F1000041EB045141EA70
:10172000050130BD5FEA4C0C404141EB010111F471
:10173000801FA4F10104E9D191F0000F04BF01461C
:101740000020B1FA81F308BF2033A3F10B03B3F1FA
:1017500020020CDA0C3208DD02F1140CC2F10C028A
:1017600001FA0CF021FA02F10CE002F11402D8BFE8
:10177000C2F1200C01FA02F120FA0CFCDCBF41EAB4
:101780000C019040E41AA2BF01EB0451294330BD83
:101790006FEA04041F3C1CDA0C340EDC04F1140460
:1017A000C4F1200220FA04F001FA02F340EA030037
:1017B00021FA04F345EA030130BDC4F10C04C4F17D
:1017C000200220FA02F001FA04F340EA030029465D
:1017D00030BD21FA04F0294630BD94F0000F83F4A7
:1017E000801306BF81F480110134013D4EE77FEA8A
:1017F000645C18BF7FEA655C29D094EA050F08BFD6
:1018000090EA020F05D054EA000C04BF19461046B6
:1018100030BD91EA030F1EBF0021002030BD5FEAFA
:10182000545C05D14000494128BF41F0004130BD22
:1018300014F580043CBF01F5801130BD01F0004576
:1018400045F0FE4141F470014FF0000030BD7FEAE9
:10185000645C1ABF194610467FEA655C1CBF0B46E4
:10186000024650EA013406BF52EA033591EA030FFB
:1018700041F4002130BD00BF90F0000F04BF0021F3
:10188000704730B54FF4806404F132044FF0000526
:101890004FF0000150E700BF90F0000F04BF00219F
:1018A000704730B54FF4806404F1320410F0004505
:1018B00048BF40424FF000013EE700BF42004FEA00
:1018C000E2014FEA31014FEA02701FBF12F07F437D
:1018D00093F07F4F81F06051704792F0000F14BF7A
:1018E00093F07F4F704730B54FF4607401F00045BE
:1018F00021F0004120E700BF50EA010208BF704715
:1019000030B54FF000050AE050EA010208BF704709
:1019100030B511F0004502D5404261EB41014FF472
:10192000806404F132045FEA915C3FF4DCAE4FF076
:1019300003025FEADC0C18BF03325FEADC0C18BF5D
:10194000033202EBDC02C2F1200300FA03FC20FAAE
:1019500002F001FA03FE40EA0E0021FA02F11444FB
:10196000C1E600BF70B54FF0FF0C4CF4E06C1CEA10
:1019700011541DBF1CEA135594EA0C0F95EA0C0F85
:1019800000F0DEF82C4481EA030621EA4C5123EAF8
:101990004C5350EA013518BF52EA033541F4801127
:1019A00043F4801338D0A0FB02CE4FF00005E1FBDA
:1019B00002E506F00042E0FB03E54FF00006E1FB24
:1019C00003569CF0000F18BF4EF0010EA4F1FF0467
:1019D000B6F5007F64F5407404D25FEA4E0E6D41A7
:1019E00046EB060642EAC62141EA55514FEAC520B8
:1019F00040EA5E504FEACE2EB4F1FD0C88BFBCF534
:101A0000E06F1ED8BEF1004F08BF5FEA500E50F1E4
:101A1000000041EB045170BD06F0004646EA0101AA
:101A200040EA020081EA0301B4EB5C04C2BFD4EBDC
:101A30000C0541EA045170BD41F480114FF0000ED5
:101A4000013C00F3AB8014F1360FDEBF002001F043
:101A5000004170BDC4F10004203C35DA0C341BDCBD
:101A600004F11404C4F1200500FA05F320FA04F08F
:101A700001FA05F240EA020001F0004221F00041C3
:101A800010EBD37021FA04F642EB06015EEA430E36
:101A900008BF20EAD37070BDC4F10C04C4F1200566
:101AA00000FA04F320FA05F001FA04F240EA020019
:101AB00001F0004110EBD37041F100015EEA430EEA
:101AC00008BF20EAD37070BDC4F1200500FA05F20A
:101AD0004EEA020E20FA04F301FA05F243EA020389
:101AE00021FA04F001F0004121FA04F220EA020098
:101AF00000EBD3705EEA430E08BF20EAD37070BDDE
:101B000094F0000F0FD101F00046400041EB0101BD
:101B100011F4801F08BF013CF7D041EA060195F09F
:101B2000000F18BF704703F00046520043EB030359
:101B300013F4801F08BF013DF7D043EA0603704746
:101B400094EA0C0F0CEA135518BF95EA0C0F0CD051
:101B500050EA410618BF52EA4306D1D181EA030197
:101B600001F000414FF0000070BD50EA410606BF91
:101B70001046194652EA430619D094EA0C0F02D1D6
:101B800050EA013613D195EA0C0F05D152EA03361B
:101B90001CBF104619460AD181EA030101F0004139
:101BA00041F0FE4141F470014FF0000070BD41F082
:101BB000FE4141F4780170BD70B54FF0FF0C4CF45C
:101BC000E06C1CEA11541DBF1CEA135594EA0C0F7B
:101BD00095EA0C0F00F0A7F8A4EB050481EA030EC8
:101BE00052EA03354FEA013100F088804FEA0333AF
:101BF0004FF0805545EA131343EA12634FEA02227D
:101C000045EA111545EA10654FEA00260EF000413D
:101C10009D4208BF964244F1FD0404F5407402D28F
:101C20005B084FEA3202B61A65EB03055B084FEA20
:101C300032024FF480104FF4002CB6EB020E75EB1D
:101C4000030E22BFB61A754640EA0C005B084FEA45
:101C50003202B6EB020E75EB030E22BFB61A7546C2
:101C600040EA5C005B084FEA3202B6EB020E75EB0D
:101C7000030E22BFB61A754640EA9C005B084FEA85
:101C80003202B6EB020E75EB030E22BFB61A754692
:101C900040EADC0055EA060E18D04FEA051545EA81
:101CA00016754FEA06164FEAC30343EA52734FEA2A
:101CB000C2025FEA1C1CC0D111F4801F0BD141EAA3
:101CC00000014FF000004FF0004CB6E711F4801F08
:101CD00004BF01430020B4F1FD0C88BFBCF5E06FE8
:101CE0003FF6AFAEB5EB030C04BFB6EB020C5FEAF8
:101CF000500C50F1000041EB045170BD0EF0004E4D
:101D00004EEA113114EB5C04C2BFD4EB0C0541EA7E
:101D1000045170BD41F480114FF0000E013C90E67B
:101D200045EA060E8DE60CEA135594EA0C0F08BF3F
:101D300095EA0C0F3FF43BAF94EA0C0F0AD150EA3E
:101D400001347FF434AF95EA0C0F7FF425AF1046D1
:101D500019462CE795EA0C0F06D152EA03353FF4F9
:101D6000FDAE1046194622E750EA410618BF52EA76
:101D700043067FF4C5AE50EA41047FF40DAF52EA4A
:101D800043057FF4EBAE12E74FF0FF3C06E000BFE7
:101D90004FF0010C02E000BF4FF0010C4DF804CDF4
:101DA0004FEA410C7FEA6C5C4FEA430C18BF7FEAB4
:101DB0006C5C1BD001B050EA410C0CBF52EA430CE2
:101DC00091EA030F02BF90EA020F0020704710F162
:101DD000000F91EA030F58BF994208BF90422CBFF1
:101DE000D8176FEAE37040F0010070474FEA410CEA
:101DF0007FEA6C5C02D150EA013C07D14FEA430C08
:101E00007FEA6C5CD6D152EA033CD3D05DF8040B78
:101E1000704700BF8446104662468C4619466346AA
:101E200000E000BF01B5FFF7B7FF002848BF10F181
:101E3000000F01BD4DF808EDFFF7F4FF0CBF0120C6
:101E400000205DF808FB00BF4DF808EDFFF7EAFF42
:101E500034BF012000205DF808FB00BF4DF808EDFD
:101E6000FFF7E0FF94BF012000205DF808FB00BFF2
:101E70004DF808EDFFF7CEFF94BF012000205DF87C
:101E800008FB00BF4DF808EDFFF7C4FF34BF012089
:081E900000205DF808FB00BF13
:101E9800000000000000F03FF4010000007A030A8F
:101EA8000000000000000000010203040607080902
:0400000508000000EF
:00000001FF
