:020000040800F2
:1000000018130020390C0008950C0008950C000806
:10001000950C0008950C0008950C000800000000E5
:10002000000000000000000000000000950C000827
:10003000950C000800000000950C0008F51200085F
:10004000950C0008950C0008950C0008950C00080C
:10005000950C0008950C0008950C0008950C0008FC
:10006000950C0008950C0008950C0008950C0008EC
:10007000950C0008950C0008950C0008950C0008DC
:10008000950C0008950C0008950C0008950C0008CC
:10009000950C0008950C0008950C0008950C0008BC
:1000A000950C0008950C0008950C0008950C0008AC
:1000B000950C00089D0C0008950C0008950C000894
:1000C000950C0008950C0008950C0008950C00088C
:1000D000950C0008950C0008950C0008950C00087C
:1000E000950C0008950C0008950C0008950C00086C
:1000F000950C0008950C0008950C0008950C00085C
:10010000950C0008950C0008950C0008950C00084B
:10011000950C0008950C0008950C0008950C00083B
:10012000950C0008950C0008950C0008950C00082B
:10013000950C0008950C0008950C0008950C00081B
:10014000950C0008950C0008950C0008950C00080B
:10015000950C0008950C0008950C0008950C0008FB
:10016000950C0008950C0008950C0008950C0008EB
:10017000950C0008950C0008950C0008950C0008DB
:10018000950C0008950C000880B500AF0A4B0122C1
:100190001A60094B00221A71074B00229A71064B14
:1001A00003225A71044B0022DA710349034801F01B
:1001B00041F900BF80BD00BFB80A00200000024026
:1001C00080B582B000AF786039600121022000F074
:1001D000E1FE3B680B4A53607B689AB2094B1A8078
:1001E000084B00221A81074B00225A800549064815
:1001F00001F04EFC0121044801F0B4FC00BF0837B7
:10020000BD4680BD6C0A00200004004080B500AFF0
:100210004FF4C06001F0F8FA0C4B1D221A700B4B22
:1002200000225A70094B00229A70084B0122DA70A2
:10023000064801F0FBFA0121054801F001FD012209
:100240000121034801F0AEFC00BF80BDD00A0020B0
:100250000004004080B485B000AF78600F4B1A688E
:100260007B6802FB03F3FB600D4B1B680D4A934256
:1002700004D00B4B1B680C4A934204D1074B1B68FC
:10028000FA68D31AFB6000BFFB685A1EFA60002BA5
:10029000FAD100BF1437BD4680BC7047100B002058
:1002A0000C0000200095BA0A00E1F50580B582B087
:1002B00000AF03460A46FB711346BB7101F092F88A
:1002C00000F098F94AF6C870FFF7C4FF2A4ABB79D4
:1002D000D370294AFB791371274B00225A71264BA0
:1002E00000229A71244B00225A70BB79012B06D947
:1002F000214B5B7843F00803DAB21F4B5A7003209E
:1003000000F0F2F841F29410FFF7A4FF032000F090
:10031000EBF841F29410FFF79DFF032000F0E4F8A2
:1003200041F29410FFF796FF022000F0DDF8642000
:10033000FFF790FF104B5B7843F02003DBB21846C9
:1003400000F09AF80C4B04221A7000F07FF800F0CD
:1003500015F8094B02229A70074B9B7843F004036F
:10036000DBB2184600F088F841F29410FFF772FFF4
:1003700000BF0837BD4680BDC809002080B500AF6A
:10038000012000F079F840F6B830FFF763FF00BFB6
:1003900080BD00BF80B582B000AF03463A60FB71FC
:1003A0000B46BB71BA79FB791146184600F0EEF89E
:1003B00042E0254B5A79244B1B799A4210D3224BA9
:1003C00000225A71204B9B790133DAB21E4B9A718D
:1003D0001D4B5A791C4B9B791946104600F0D6F8F4
:1003E0003B681B780A2B0ED1174B9B790133DAB28D
:1003F000154B9A71144B5A79134B9B791946104639
:1004000000F0C4F815E03B681B780D2B06D10E4BAD
:100410009B791946002000F0B9F80AE03B681B7888
:10042000184600F045F8084B5B790133DAB2064B09
:100430005A713B6801333B603B681B78002BB8D195
:1004400000BF0837BD4680BDC809002080B500AF99
:10045000084B1B7843F00403DAB2064B1A70054BC5
:100460001B7843F00803DBB2184600F005F800BF24
:1004700080BD00BFC809002080B582B000AF034630
:10048000FB710A4B04225A83FB791B09DBB2184625
:1004900000F02AF8FB7903F00F03DBB2184600F0F6
:1004A00023F800BF0837BD4680BD00BF00040240EE
:1004B00080B582B000AF0346FB710A4B04221A8359
:1004C000FB791B09DBB2184600F00EF8FB7903F04C
:1004D0000F03DBB2184600F007F800BF0837BD462F
:1004E00080BD00BF0004024080B582B000AF03466B
:1004F000FB71FB7903F00803002B04D0214B4FF470
:1005000000521A8303E01F4B4FF400525A83FB79C9
:1005100003F00403002B04D01A4B4FF480521A83CB
:1005200003E0184B4FF480525A83FB7903F0020327
:10053000002B04D0144B4FF400521A8303E0124BEB
:100540004FF400525A83FB7903F00103002B04D0CF
:100550000D4B4FF480521A8303E00B4B4FF4805243
:100560005A83084B80221A831420FFF773FE054B31
:1005700080225A831420FFF76DFE00BF0837BD4666
:1005800080BD00BF000402400008024080B584B076
:1005900000AF03460A46FB711346BB71134A07F1CD
:1005A0000C0310681860124BDB78BA799A4201D3B9
:1005B0000023BB710E4AFB7953710D4ABB799371CD
:1005C000BB7907F11002134413F8042CFB79134490
:1005D000DBB25BB263F07F035BB2DBB21846FFF7BE
:1005E0004BFF00BF1037BD4680BD00BF1C67000831
:1005F000C809002080B582B002AF00230193002318
:100600000093002301220421284801F06FF9002300
:10061000019300230093002301228021234801F04D
:1006200065F90023019300230093002301224FF476
:1006300080511F4801F05AF90023019300230093D1
:10064000002301224FF40051194801F04FF9002313
:10065000019300230093002301224FF4805113489B
:1006600001F044F9002301930023009300230122A9
:100670004FF400510D4801F039F90C4B04225A8314
:100680000A4B80225A830A4B4FF480525A83084BFC
:100690004FF400525A83054B4FF480525A83034B58
:1006A0004FF400525A8300BFBD4680BD0004024093
:1006B0000008024080B584B000AF78600B46FB7044
:1006C000FB78FB73FB7B002B03D1786800F0F8F814
:1006D00067E0FB7B012B03D1786800F0FFF860E056
:1006E000FB7B022B03D1786800F006F959E0FB7B15
:1006F000032B03D1786800F00DF952E0FB7B042B4B
:1007000003D1786800F014F94BE0FB7B052B03D193
:10071000786800F033F944E0FB7B062B03D178685E
:1007200000F052F93DE0FB7B072B03D1786800F025
:1007300073F936E0FB7B082B03D1786800F094F95D
:100740002FE0FB7B092B03D1786800F0B5F928E096
:10075000FB7B0A2B03D1786800F0D4F921E0FB7B06
:100760000B2B03D1786800F0DBF91AE0FB7B0C2B34
:1007700003D1786800F0E2F913E0FB7B0D2B03D185
:10078000786800F0E9F90CE0FB7B0E2B03D1786868
:1007900000F0F0F905E0FB7B0F2B02D1786800F048
:1007A0000FFA786800F004F800BF1037BD4680BD2E
:1007B00080B58CB000AF786000237B770023BB62EC
:1007C00000237B6200233B62012387F82C30002347
:1007D0003B777B68214A934208D1214A204B5B6CCE
:1007E00043F4807353640023BB6118E07B681D4AA7
:1007F000934208D11A4A1A4B5B6C43F4007353645A
:100800000023BB610BE07B68174A934207D1144A6F
:10081000134B5B6C43F4806353640023BB61002380
:100820003B610023BB604FF48033FB604FF44073A7
:100830007B6107F10803184600F01EFC07F118035E
:100840001946786800F0C4FB7B689B6843F001029E
:100850007B689A6000BF3037BD4680BD00200140F4
:1008600000380240002101400022014080B584B0E0
:1008700000AF78600B46FB7040F6FF73FB60F978C1
:1008800001230122786800F01FFC7B689B6843F01D
:1008900080427B689A6006E0FB685A1EFA60002B73
:1008A00001D1002308E07B681B6803F00203002BE2
:1008B000F2D07B68DB6C9BB218461037BD4680BD1A
:1008C00080B582B000AF78600121034800F0A0F944
:1008D00000BF0837BD4680BD0000024080B582B031
:1008E00000AF78600221034800F092F900BF08379A
:1008F000BD4680BD0000024080B582B000AF786088
:100900000421034800F084F900BF0837BD4680BDCC
:100910000000024080B582B000AF78600821034833
:1009200000F076F900BF0837BD4680BD00000240E8
:1009300080B582B000AF78607B680B4A934203D0E9
:100940007B680A4A934203D11021094800F060F9FC
:100950007B68084A934203D14021074800F058F9C8
:1009600000BF0837BD4680BD002001400021014086
:1009700000000240002201400014024080B582B015
:1009800000AF78607B680B4A934203D07B680A4AC9
:10099000934203D12021094800F03AF97B68084AC4
:1009A000934203D18021074800F032F900BF083795
:1009B000BD4680BD002001400021014000000240F2
:1009C000002201400014024080B582B000AF786080
:1009D0007B680C4A934203D07B680B4A934203D155
:1009E00040210A4800F014F97B68094A934204D177
:1009F0004FF48071074800F00BF900BF0837BD467F
:100A000080BD00BF002001400021014000000240E5
:100A1000002201400014024080B582B000AF78602F
:100A20007B680C4A934203D07B680B4A934203D104
:100A300080210A4800F0ECF87B68094A934204D10F
:100A40004FF40071074800F0E3F800BF0837BD46D7
:100A500080BD00BF00200140002101400000024095
:100A6000002201400014024080B582B000AF7860DF
:100A70007B680C4A934203D07B680B4A934203D1B4
:100A800001210A4800F0C4F87B68094A934204D166
:100A90004FF48061074800F0BBF800BF0837BD463F
:100AA00080BD00BF00200140002101400004024041
:100AB000002201400014024080B582B000AF78608F
:100AC0007B680B4A934203D07B680A4A934203D166
:100AD0000221094800F09CF87B68084A934203D140
:100AE0000821074800F094F800BF0837BD4680BDD4
:100AF000002001400021014000040240002201408A
:100B00000014024080B582B000AF78600121034834
:100B100000F07EF800BF0837BD4680BD00080240E7
:100B200080B582B000AF78600221034800F070F811
:100B300000BF0837BD4680BD0008024080B582B0C6
:100B400000AF78600421034800F062F800BF083766
:100B5000BD4680BD0008024080B582B000AF78601D
:100B60000821034800F054F800BF0837BD4680BD97
:100B70000008024080B582B000AF78607B680B4A05
:100B8000934203D07B680A4A934203D1102109485B
:100B900000F03EF87B68084A934203D110210748D1
:100BA00000F036F800BF0837BD4680BD0020014088
:100BB00000210140000802400022014000140240D0
:100BC00080B582B000AF78607B680C4A934203D056
:100BD0007B680B4A934204D120210A4800F018F8A0
:100BE00007E07B68084A934203D12021074800F0C0
:100BF0000FF800BF0837BD4680BD00BF0020014090
:100C0000002101400008024000220140001402407F
:100C100080B584B002AF78600B467B807988012371
:100C200001930223009300230322786800F05EFE04
:100C300000BF0837BD4680BD80B582B000AF104B05
:100C40007B60104B3B6007E03B681A1D3A607A6896
:100C5000111D796012681A603B680B4A9342F3D306
:100C60000A480B494FF000028842B8BF40F8042BF5
:100C7000FADB00F02BF800BF0837BD4680BD00BF8F
:100C8000E469000800000020C8090020C80900200D
:100C9000180B002080B400AFFEE700BF80B500AFA6
:100CA0000121084800F0A2FF0346002B08D0064BA4
:100CB0001B680133044A13600121024800F0C0FFA1
:100CC00000BF80BD00040040E009002098B500AFDF
:100CD00000F058FC00F084FC02211020FFF7E6FA37
:100CE000FFF74CFB924A00210020FFF753FB914A8B
:100CF00000210020FFF74EFB8F4A01210020FFF763
:100D000049FB03218D48FFF7D5FC0B218C48FFF7E9
:100D1000D1FCFFF739FA49F63F410120FFF750FABD
:100D2000FFF774FAFFF72AFB864A00210020FFF73D
:100D300031FB0121844800F00BFC0346012B00D05D
:100D4000F7E700BFFFF71AFB01217F4800F000FC26
:100D50000346012B18D17D4B00221A607C4A4FF0CC
:100D600000034FF00004C2E900347A4A4FF0000358
:100D70004FF00004C2E90034774B00221A60774B31
:100D800000221A60FFF7FAFA03216C48FFF76EFDA4
:100D90000346184601F0B6F803460C46704AC2E90D
:100DA00000340B216648FFF761FD034632331846D5
:100DB00001F0A8F803460C466A4AC2E900346A4BBF
:100DC0001B68002B40F09180654BD3E90001654B17
:100DD000D3E900341A46234601F08AFB0346002B70
:100DE00068D05E4B1B68002B64D1584B1B68002BEE
:100DF00022D1594B00221A60544B01221A60564BE3
:100E00001B685A4A1360584B01221A60FFF7B6FA62
:100E10004F4BD3E900341A4623465549554801F053
:100E20003FFE544A01210320FFF7B4FA404A002153
:100E30000D20FFF7AFFA3AE0474B1B68184601F068
:100E400061F84FF000024C4B01F0ECF903460C4600
:100E5000404AC2E90034494BD3E900013D4BD3E994
:100E600000341A46234601F0DDF903460C46384AA1
:100E7000C2E90034354B00221A60374B1B683B4AED
:100E80001360394B01221A602A4A01210D20FFF715
:100E900081FA2F4BD3E900341A46234634493548AA
:100EA00001F0FEFD334A01210320FFF773FA2B4BBB
:100EB00001221A602A4BD3E900012A4BD3E90034FE
:100EC0001A46234601F0F6FA0346002B0DD0234BB9
:100ED0001B68012B09D1214B00221A601E4B1B6895
:100EE000224A1360204B01221A601B4B1A681F4BC9
:100EF0001B68D21A224B1B689A4202DD1A4B002251
:100F00001A60154B1B681A461E491F4801F0C8FDA0
:100F10001E4A00210020FFF73DFA1D4A0121002052
:100F2000FFF738FA184A00210320FFF733FA0BE7DE
:100F30002067000824670008286700080020014097
:100F4000002101403067000800000240E409002051
:100F5000D0090020D8090020E0090020E80900207D
:100F6000F80A0020000B0020F0090020EC09002006
:100F700040670008F00A002000408F400000002079
:100F80000800002044670008080B0020486700089C
:100F90004C67000880B483B000AF78600B46FB70EC
:100FA000FB78002B06D00949084B1A6C7B68134369
:100FB0000B6406E00549054B1A6C7B68DB43134064
:100FC0000B6400BF0C37BD4680BC70470038024040
:100FD00080B485B000AF786039600023FB600023E7
:100FE000FB727B685B68FB60FB6823F0407323F453
:100FF0008073FB603B681B791A023B681B681343D4
:10100000FA681343FB607B68FA685A607B689B68E8
:10101000FB60FA68174B1340FB603B681A693B683A
:10102000DB681A433B689B681A433B685B795B004B
:101030001343FA681343FB607B68FA689A607B6825
:10104000DB6AFB60FB6823F47003FB603B681B7D7D
:10105000013BDAB2FB7A1343FB72FB7A1B05FA6899
:101060001343FB607B68FA68DA6200BF1437BD4641
:1010700080BC7047FDF7FFC080B485B000AF7860DA
:101080000023FB600E4B5B68FB60FA680D4B13405E
:10109000FB607B681A687B685B681A437B689B68A7
:1010A0001A437B68DB681343FA681343FB60044A06
:1010B000FB68536000BF1437BD4680BC704700BF5B
:1010C00000230140E030FCFF80B485B000AF7860C1
:1010D000084611461A460346FB700B46BB70134682
:1010E0007B700023FB600023BB60FB78092B23D9B6
:1010F0007B68DB68FB60FB78A3F10A0213465B00A8
:101100001344072202FA03F3BB60BB68DB43FA68AF
:101110001340FB607978FB78A3F10A0213465B0069
:10112000134401FA03F3BB60FA68BB681343FB6026
:101130007B68FA68DA601EE07B681B69FB60FA78FE
:1011400013465B001344072202FA03F3BB60BB683B
:10115000DB43FA681340FB607978FA7813465B004A
:10116000134401FA03F3BB60FA68BB681343FB60E6
:101170007B68FA681A61BB78062B21D87B685B6BA9
:10118000FB60BB785A1E13469B0013441F2202FAD1
:1011900003F3BB60BB68DB43FA681340FB60F9787C
:1011A000BB785A1E13469B00134401FA03F3BB603D
:1011B000FA68BB681343FB607B68FA685A6347E0D0
:1011C000BB780C2B21D87B681B6BFB60BB78DA1FCC
:1011D00013469B0013441F2202FA03F3BB60BB6853
:1011E000DB43FA681340FB60F978BB78DA1F1346DB
:1011F0009B00134401FA03F3BB60FA68BB68134316
:10120000FB607B68FA681A6322E07B68DB6AFB603C
:10121000BB78A3F10D0213469B0013441F2202FA70
:1012200003F3BB60BB68DB43FA681340FB60F978EB
:10123000BB78A3F10D0213469B00134401FA03F39C
:10124000BB60FA68BB681343FB607B68FA68DA62CC
:1012500000BF1437BD4680BC704700BF80B483B068
:1012600000AF03463960FB7197F90730002B0BDAAA
:101270000D49FB7903F00F03043B3A68D2B2120127
:10128000D2B20B441A7609E0084997F907303A6858
:10129000D2B21201D2B20B4483F8002300BF0C3744
:1012A000BD4680BC704700BF00ED00E000E100E0FB
:1012B00080B582B000AF78607B68B3F1807F01D3E6
:1012C000012311E00A4A7B6823F07F43013B53600E
:1012D0000F214FF0FF30FFF7C1FF054B00229A604E
:1012E000034B07221A60002318460837BD4680BD0D
:1012F00010E000E080B582B000AF374B1B680133CF
:10130000354A1360354B1B68002B04D0334B1B68E8
:10131000013B324A1360AFF300800023FB7152E0BF
:10132000FB792F4A9B0013445B68002B48D0FB7964
:101330002B4A9B0013445B681B7B002B40D0FB793E
:10134000274A9B0013445B689B68002B38D0FB79CD
:10135000234A9B0013445B689A68013A9A60FB79C0
:101360001F4A9B0013445B689B68002B28D1FB79C4
:101370001B4A9B0013445B681A69FB7918499B0060
:101380000B445B685B6918469047FB79144A9B00E5
:1013900013445A68FB7912499B000B445B681B6835
:1013A0009360FB790E4A9B0013445B685B68002BDB
:1013B00006D1FB790A4A9B0013445B6800221A732A
:1013C000FB790133FB71064B1B78FA799A42A7D35C
:1013D00000BF0837BD4680BDF8090020FC09002089
:1013E000040A002080B500AF0D4B1B680D4AA2FB1C
:1013F00003239B091846FFF75BFF0346002B00D031
:10140000FEE7074B1B689B09074AA2FB03239B0AC5
:10141000064A1360064B01221A7000BF80BD00BF50
:101420000C000020D34D621017916502100B0020B4
:10143000000A002080B487B000AF786039600023D4
:101440007B6100233B610023FB6000237B6176E02E
:1014500001227B6902FA03F33B613B681A683B692E
:101460001340FB60FA683B699A4265D17B681A6851
:101470007B695B00032101FA03F3DB431A407B68BD
:101480001A607B681A683B681B7919467B695B00A8
:1014900001FA03F31A437B681A603B681B79012B3E
:1014A00003D03B681B79022B2ED17B689A687B693D
:1014B0005B00032101FA03F3DB431A407B689A6067
:1014C0007B689A683B685B7919467B695B0001FA27
:1014D00003F31A437B689A607B685A687B699BB206
:1014E000194601238B40DB431A407B685A607B68B6
:1014F0005B683A68927911467A6992B201FA02F20F
:1015000092B21A437B685A607B68DA687B699BB247
:101510005B00032101FA03F3DB431A407B68DA60C6
:101520007B68DA683B68DB7919467B695B0001FA06
:1015300003F31A437B68DA607B6901337B617B6963
:101540000F2B85D900BF1C37BD4680BC704700BF3C
:1015500080B485B000AF78600B467B800023FB73BE
:101560007B681A697B881340002B02D00123FB7330
:1015700001E00023FB73FB7B18461437BD4680BC9B
:10158000704700BF80B500AF124A124B1B6843F092
:10159000010313600F4B00229A600E4A0D4B1B682B
:1015A00023F0847323F4803313600A4B0A4A5A6091
:1015B000084A084B1B6823F480231360054B002264
:1015C000DA6000F089F8054B4FF000629A6000BFC6
:1015D00080BD00BF003802401030002400ED00E064
:1015E00080B487B000AF00233B6100237B610223FE
:1015F000FB600023BB6002237B60324B9B6803F0DF
:101600000C033B613B69042B07D0082B09D0002B4E
:101610003FD12D4B2D4A1A603FE02B4B2C4A1A60CC
:101620003BE0284B5B6803F480039B0DBB60254BBC
:101630005B6803F03F037B60BB68002B0DD0244A3E
:101640007B68B2FBF3F21F4B596847F6C0730B403F
:101650009B0903FB02F37B610CE01C4A7B68B2FB35
:10166000F3F2184B596847F6C0730B409B0903FB14
:1016700002F37B61134B5B6803F440331B0C0133B3
:101680005B00FB607A69FB68B2FBF3F30E4A136000
:1016900003E00D4B0D4A1A6000BF0A4B9B6803F034
:1016A000F0031B090B4AD35CDBB23B61064B1A68A3
:1016B0003B6922FA03F3044A136000BF1C37BD469E
:1016C00080BC7047003802400C0000200024F40069
:1016D00000127A001000002080B483B000AF002315
:1016E0007B6000233B60354A344B1B6843F48033F6
:1016F0001360324B1B6803F400333B607B6801339B
:101700007B603B68002B03D17B68B3F5A06FF0D101
:101710002A4B1B6803F40033002B02D001233B60EB
:1017200001E000233B603B68012B42D1234A234B5D
:101730001B6C43F080531364214A214B1B6843F414
:10174000804313601D4A1D4B9B6893601B4A1B4BD3
:101750009B6843F400439360184A184B9B6843F41A
:10176000A0539360154B174A5A60144A134B1B68D9
:1017700043F08073136000BF104B1B6803F00073CD
:10178000002BF9D0104B40F205621A600B4A0B4B4C
:101790009B6823F003039360084A084B9B6843F05F
:1017A0000203936000BF054B9B6803F00C03082BFA
:1017B000F9D100BF0C37BD4680BC704700380240ED
:1017C0000070004008544007003C024080B485B0DF
:1017D00000AF78600A4B1B68002B02D1084B094A06
:1017E0001A60074B1B68FB60054B1A687B68134443
:1017F000034A1360FB6818461437BD4680BC704727
:101800001C0A0020180B002080B483B000AF786061
:10181000054A7B6843F0BF6343F40033D36000BFE5
:101820000C37BD4680BC704700ED00E080B485B049
:1018300000AF78600023FB730023BB730F237B731F
:101840007B68DB78002B38D0264BDB68DB4303F466
:10185000E0631B0AFB73FB7BC3F10403BB737A7B5E
:10186000FB7B42FA03F37B737B685B781A46BB7B96
:1018700002FA03F3FB737B689A787B7B1340DAB23E
:10188000FB7B1343FB73FB7B1B01FB73164A7B68DB
:101890001B781344FA7B83F80023134A7B681B7878
:1018A0005B09DBB218467B681B7803F01F0301213C
:1018B00001FA03F342F820300FE00B497B681B78F4
:1018C0005B09DBB218467B681B7803F01F0301221B
:1018D0009A4000F1200341F8232000BF1437BD4691
:1018E00080BC704700ED00E000E100E080B584B00E
:1018F00002AF7860084611461A4603467B800B46C5
:101900007B7013463B707B88002B0ED0786800F00C
:1019100021F838787A7879883B7D01933B7C009375
:101920000346786800F02EF800E000BF0837BD4697
:1019300080BD00BF80B483B000AF78607B6803F1E6
:101940003F4303F57E039B0A9BB218460C37BD4606
:1019500080BC704780B582B000AF78607868FFF7D0
:10196000E9FF03461A46012303FA02F1044A044B35
:101970001B6B0B43136300BF0837BD4680BD00BF20
:101980000038024080B584B000AF78600846114648
:101990001A4603467B800B467B7013463B70786883
:1019A000FFF7C8FF0346BB730023FB7367E07A8829
:1019B000FB7B42FA03F303F00103002B5BD0BB7BFC
:1019C000BA7B324931F8122011B2FA7B012000FAB9
:1019D00002F212B20A4312B291B22C4A22F8131048
:1019E0007B68DB68FA7B5200032101FA02F2D243E2
:1019F0001340397EFA7B520001FA02F21A437B68E7
:101A0000DA607B681A68FB7B5B00032101FA03F351
:101A1000DB4313407978FA7B520001FA02F21A4351
:101A20007B681A607B78012B02D07B78022B23D154
:101A30007B685B68FA7B012101FA02F292B2D24321
:101A400013403978FA7B01FA02F292B21A437B68AA
:101A50005A607B689A68FB7B5B00032101FA03F301
:101A6000DB431340397FFA7B520001FA02F21A433A
:101A70007B689A6000E000BFFB7B0133FB73FB7B5C
:101A80000F2B94D900BF1037BD4680BD200A00201F
:101A900080B485B000AF786039600023FB817B683B
:101AA0001B88FB817B68284A934213D07B68274AB6
:101AB00093420FD07B68B3F1804F0BD07B68244AF0
:101AC000934207D07B68234A934203D07B68224A23
:101AD000934208D1FB8923F07003FB813B685A884D
:101AE000FB891343FB817B681C4A93420CD07B68C3
:101AF0001B4A934208D0FB8923F44073FB813B6867
:101B00001A89FB891343FB817B68FA891A803B6839
:101B10005A687B68DA623B681A887B681A857B683A
:101B2000094A934203D07B68084A934204D13B6838
:101B30009B7A9AB27B681A867B6801229A8200BFE0
:101B40001437BD4680BC70470000014000040140CE
:101B50000004004000080040000C0040001000405D
:101B60000014004080B483B000AF78600B46FB7077
:101B7000FB78002B08D07B681B889BB243F00103E5
:101B80009AB27B681A8007E07B681B889BB223F0BF
:101B900001039AB27B681A8000BF0C37BD4680BC37
:101BA000704700BF80B483B000AF78600B467B8085
:101BB00013467B707B78002B08D07B689B899AB298
:101BC0007B8813439AB27B689A8109E07B689B8982
:101BD0009AB27B88DB439BB213409AB27B689A81AE
:101BE00000BF0C37BD4680BC704700BF80B485B0D5
:101BF00000AF78600B467B800023FB730023BB8122
:101C000000237B817B681B8A9AB27B881340BB814F
:101C10007B689B899AB27B8813407B81BB89002BB0
:101C200005D07B89002B02D00123FB7301E0002348
:101C3000FB73FB7B18461437BD4680BC704700BF62
:101C400080B483B000AF78600B467B807B88DB4339
:101C50009AB27B681A8200BF0C37BD4680BC7047C1
:101C600081F0004102E000BF83F0004330B54FEA4D
:101C700041044FEA430594EA050F08BF90EA020FBA
:101C80001FBF54EA000C55EA020C7FEA645C7FEA4D
:101C9000655C00F0E2804FEA5454D4EB5555B8BF70
:101CA0006D420CDD2C4480EA020281EA030382EAE1
:101CB000000083EA010180EA020281EA0303362D73
:101CC00088BF30BD11F0004F4FEA01314FF4801C46
:101CD0004CEA113102D0404261EB410113F0004F58
:101CE0004FEA03334CEA133302D0524263EB43030F
:101CF00094EA050F00F0A780A4F10104D5F1200EAD
:101D00000DDB02FA0EFC22FA05F2801841F1000107
:101D100003FA0EF2801843FA05F359410EE0A5F1DB
:101D200020050EF1200E012A03FA0EFC28BF4CF00C
:101D3000020C43FA05F3C01851EBE37101F00045C2
:101D400007D54FF0000EDCF1000C7EEB00006EEBCF
:101D50000101B1F5801F1BD3B1F5001F0CD3490859
:101D60005FEA30004FEA3C0C04F101044FEA4452B0
:101D700012F5800F80F09A80BCF1004F08BF5FEA37
:101D8000500C50F1000041EB045141EA050130BD17
:101D90005FEA4C0C404141EB010111F4801FA4F1BA
:101DA0000104E9D191F0000F04BF01460020B1FA0F
:101DB00081F308BF2033A3F10B03B3F120020CDA47
:101DC0000C3208DD02F1140CC2F10C0201FA0CF025
:101DD00021FA02F10CE002F11402D8BFC2F1200C8A
:101DE00001FA02F120FA0CFCDCBF41EA0C01904040
:101DF000E41AA2BF01EB0451294330BD6FEA040489
:101E00001F3C1CDA0C340EDC04F11404C4F1200273
:101E100020FA04F001FA02F340EA030021FA04F385
:101E200045EA030130BDC4F10C04C4F1200220FADC
:101E300002F001FA04F340EA0300294630BD21FA1A
:101E400004F0294630BD94F0000F83F4801306BFE0
:101E500081F480110134013D4EE77FEA645C18BFD4
:101E60007FEA655C29D094EA050F08BF90EA020F6B
:101E700005D054EA000C04BF1946104630BD91EA63
:101E8000030F1EBF0021002030BD5FEA545C05D166
:101E90004000494128BF41F0004130BD14F58004A5
:101EA0003CBF01F5801130BD01F0004545F0FE4119
:101EB00041F470014FF0000030BD7FEA645C1ABF4E
:101EC000194610467FEA655C1CBF0B46024650EA85
:101ED000013406BF52EA033591EA030F41F40021B1
:101EE00030BD00BF90F0000F04BF0021704730B537
:101EF0004FF4806404F132044FF000054FF000010C
:101F000050E700BF90F0000F04BF0021704730B5CC
:101F10004FF4806404F1320410F0004548BF4042A1
:101F20004FF000013EE700BF42004FEAE2014FEAF6
:101F300031014FEA02701FBF12F07F4393F07F4FD1
:101F400081F06051704792F0000F14BF93F07F4F03
:101F5000704730B54FF4607401F0004521F0004146
:101F600020E700BF50EA010208BF704730B54FF0CC
:101F700000050AE050EA010208BF704730B511F0D1
:101F8000004502D5404261EB41014FF4806404F109
:101F900032045FEA915C3FF4DCAE4FF003025FEA8B
:101FA000DC0C18BF03325FEADC0C18BF033202EB13
:101FB000DC02C2F1200300FA03FC20FA02F001FA6D
:101FC00003FE40EA0E0021FA02F11444C1E600BF0C
:101FD00070B54FF0FF0C4CF4E06C1CEA11541DBFBF
:101FE0001CEA135594EA0C0F95EA0C0F00F0DEF88A
:101FF0002C4481EA030621EA4C5123EA4C5350EA6F
:10200000013518BF52EA033541F4801143F48013BF
:1020100038D0A0FB02CE4FF00005E1FB02E506F050
:102020000042E0FB03E54FF00006E1FB03569CF0A5
:10203000000F18BF4EF0010EA4F1FF04B6F5007FAB
:1020400064F5407404D25FEA4E0E6D4146EB06061D
:1020500042EAC62141EA55514FEAC52040EA5E50A6
:102060004FEACE2EB4F1FD0C88BFBCF5E06F1ED850
:10207000BEF1004F08BF5FEA500E50F1000041EB87
:10208000045170BD06F0004646EA010140EA020034
:1020900081EA0301B4EB5C04C2BFD4EB0C0541EA56
:1020A000045170BD41F480114FF0000E013C00F36B
:1020B000AB8014F1360FDEBF002001F0004170BD8F
:1020C000C4F10004203C35DA0C341BDC04F11404A8
:1020D000C4F1200500FA05F320FA04F001FA05F234
:1020E00040EA020001F0004221F0004110EBD37001
:1020F00021FA04F642EB06015EEA430E08BF20EA2D
:10210000D37070BDC4F10C04C4F1200500FA04F3CF
:1021100020FA05F001FA04F240EA020001F0004161
:1021200010EBD37041F100015EEA430E08BF20EAD4
:10213000D37070BDC4F1200500FA05F24EEA020E1C
:1021400020FA04F301FA05F243EA020321FA04F04B
:1021500001F0004121FA04F220EA020000EBD37002
:102160005EEA430E08BF20EAD37070BD94F0000F02
:102170000FD101F00046400041EB010111F4801F36
:1021800008BF013CF7D041EA060195F0000F18BFE7
:10219000704703F00046520043EB030313F4801F23
:1021A00008BF013DF7D043EA0603704794EA0C0FDD
:1021B0000CEA135518BF95EA0C0F0CD050EA4106F3
:1021C00018BF52EA4306D1D181EA030101F0004170
:1021D0004FF0000070BD50EA410606BF1046194698
:1021E00052EA430619D094EA0C0F02D150EA0136A4
:1021F00013D195EA0C0F05D152EA03361CBF1046E5
:1022000019460AD181EA030101F0004141F0FE4183
:1022100041F470014FF0000070BD41F0FE4141F407
:10222000780170BD70B54FF0FF0C4CF4E06C1CEA07
:1022300011541DBF1CEA135594EA0C0F95EA0C0FBC
:1022400000F0A7F8A4EB050481EA030E52EA033577
:102250004FEA013100F088804FEA03334FF0805598
:1022600045EA131343EA12634FEA022245EA1115C5
:1022700045EA10654FEA00260EF000419D4208BF76
:10228000964244F1FD0404F5407402D25B084FEA23
:102290003202B61A65EB03055B084FEA32024FF4CF
:1022A00080104FF4002CB6EB020E75EB030E22BF2C
:1022B000B61A754640EA0C005B084FEA3202B6EBEC
:1022C000020E75EB030E22BFB61A754640EA5C009B
:1022D0005B084FEA3202B6EB020E75EB030E22BF2B
:1022E000B61A754640EA9C005B084FEA3202B6EB2C
:1022F000020E75EB030E22BFB61A754640EADC00EB
:1023000055EA060E18D04FEA051545EA16754FEA4C
:1023100006164FEAC30343EA52734FEAC2025FEA6A
:102320001C1CC0D111F4801F0BD141EA00014FF0F9
:1023300000004FF0004CB6E711F4801F04BF0143CA
:102340000020B4F1FD0C88BFBCF5E06F3FF6AFAEE6
:10235000B5EB030C04BFB6EB020C5FEA500C50F176
:10236000000041EB045170BD0EF0004E4EEA1131F9
:1023700014EB5C04C2BFD4EB0C0541EA045170BD00
:1023800041F480114FF0000E013C90E645EA060E44
:102390008DE60CEA135594EA0C0F08BF95EA0C0F72
:1023A0003FF43BAF94EA0C0F0AD150EA01347FF4BA
:1023B00034AF95EA0C0F7FF425AF104619462CE791
:1023C00095EA0C0F06D152EA03353FF4FDAE1046F4
:1023D000194622E750EA410618BF52EA43067FF445
:1023E000C5AE50EA41047FF40DAF52EA43057FF4D5
:1023F000EBAE12E74FF0FF3C06E000BF4FF0010CE0
:1024000002E000BF4FF0010C4DF804CD4FEA410C43
:102410007FEA6C5C4FEA430C18BF7FEA6C5C1BD010
:1024200001B050EA410C0CBF52EA430C91EA030F91
:1024300002BF90EA020F0020704710F1000F91EAEE
:10244000030F58BF994208BF90422CBFD8176FEABC
:10245000E37040F0010070474FEA410C7FEA6C5C8A
:1024600002D150EA013C07D14FEA430C7FEA6C5C91
:10247000D6D152EA033CD3D05DF8040B704700BFBD
:102480008446104662468C461946634600E000BF0B
:1024900001B5FFF7B7FF002848BF10F1000F01BDDD
:1024A0004DF808EDFFF7F4FF0CBF012000205DF8A8
:1024B00008FB00BF4DF808EDFFF7EAFF34BF01202D
:1024C00000205DF808FB00BF4DF808EDFFF7E0FFC6
:1024D00094BF012000205DF808FB00BF4DF808ED17
:1024E000FFF7CEFF94BF012000205DF808FB00BF7E
:1024F0004DF808EDFFF7C4FF34BF012000205DF860
:1025000008FB00BF2DE9F04F01F10B05162D83B03C
:10251000064640F29F8035F0070500F1BF80A942D2
:1025200000F2BC8000F0A6FAB5F5FC7FC0F09C82FA
:102530006B0A00F0BA80042B00F28381A80900F135
:10254000390E4FEA4E033830C44F07EB8303A3F133
:1025500008015C68A14207D1ACE0002A80F2AC809F
:10256000E468A14200F0A680636823F003035A1BCD
:102570000F2AF2DDB9493C6901F1080E744500F0FB
:10258000B381636823F003035A1B0F2A00F3998178
:10259000002AC1F814E0C1F810E080F29E80B3F583
:1025A000007F80F06781DB0803F1010C01229B10A2
:1025B00002FA03F34A6851F83C80C4F8088001EB42
:1025C000CC091A43A9F10803E3604A6041F83C4092
:1025D000C8F80C40831001249C40944200F28A8089
:1025E000144206D120F003006400144200F10400FC
:1025F000FAD007EBC009CC468046DCF80C108C45BD
:1026000007D173E1002A80F28181C9688C4500F00E
:102610006D814B6823F003035A1B0F2AF2DD0C4631
:10262000D1F80CC054F8088F4B1945F001054D60E6
:1026300042F00101C8F80CC03046CCF808807B613C
:102640003B61C3F80CE0C3F808E059609A5000F011
:1026500013FA1FE0102921D800F00CFA10250623E8
:1026600002207E4F07EB8303A3F108025C689442CB
:1026700000F045816368E168A56823F00303234403
:1026800030465A68E96042F001028D605A6000F0FD
:10269000F3F90834204603B0BDE8F08F00240C2382
:1026A0002046336003B0BDE8F08F80234FF0400E2A
:1026B0003F2049E770465DE72344E1685A68A56812
:1026C00042F00102E96030468D605A6000F0D4F9B2
:1026D0000834204603B0BDE8F08F234430465A68E2
:1026E00042F001025A6000F0C7F90834204603B0F6
:1026F000BDE8F08FBC68636823F00308A84504D3E5
:10270000C5EB08030F2B00F38C80554BDFF860916D
:102710001A68D9F8003001332A4404EB080A00F0A3
:10272000608102F580520F3222F47F6222F00F02A4
:1027300011463046019200F0A1F9B0F1FF3F834607
:10274000019A00F05881824500F2FC80454B1968DF
:10275000DA451144196000F05381D9F80000DFF820
:1027600010E101301BBFCAEB0B0A5144CEF800B098
:1027700019601BF0070100F01781C1F10800C1F5D5
:102780008051834408315A44C2F30B02C2EB010961
:1027900049463046019300F071F9431C019B00F05B
:1027A0003F81CBEB00024A4442F001021968C7F8AE
:1027B00008B04944BC42CBF804201960DFF8A4906B
:1027C00016D0B8F10F0F40F2FD806268A8F10C033B
:1027D00023F00703E01802F001024FF0050E1A4340
:1027E0000F2B6260C0F804E0C0F808E000F21C8122
:1027F0001D4BBC681A68914288BF19601B4B1A6850
:102800009142626888BF196022F003029542A2EBF0
:10281000050301D80F2B04DC304600F02DF900240D
:1028200038E7621943F0010345F001056560304661
:10283000BA60536000F020F90834204603B0BDE8C8
:10284000F08F142B71D9542B00F2A480280B00F1C7
:102850006F0E4FEA4E036E3076E600BF2000002078
:10286000400A0020440A00203C0A0020380A0020C8
:102870002C0400205A0A042A5ED9142A00F2B380DC
:1028800002F15C0149005B3207EB810C57F8211023
:10289000DFF8DC81ACF1080C8C4500F088804A68D8
:1028A00022F00302934202D289688C45F7D1D1F815
:1028B0000CC07A68C4F80CC0A160CCF80840CC60A9
:1028C00088E6631942F0010745F00105656030466E
:1028D0004B610B61C3F80CE0C3F808E05F609A50ED
:1028E000083400F0C9F8D5E64A6873E608F1010833
:1028F00018F0030F0CF1080C7FF47FAE30E0DC68B9
:10290000A34208BF02303FF435AEB3E60B440C4699
:102910005A68C96854F8085F42F001025A603046AC
:10292000E9608D6000F0A8F8B4E603F15C0E03F1F5
:102930005B004FEA4E0307E69A0902F139014900AC
:102940003832A1E7BC424A4B3FF400AF9C68626852
:1029500022F003025AE759F80839994540F082807D
:1029600010F0030F00F1FF30F5D17B6823EA040378
:102970007B6064009C423FF6BDAE002C3FF4BAAED3
:102980001C4240467FF435AE64001C4200F1040056
:10299000FAD02EE6B3F5AA7F18D8E80B00F1780E2E
:1029A0004FEA4E037730CFE54FF48051EBE601213B
:1029B000D8F80430921001FA02F21A43C8F8042041
:1029C000614677E70123CBF8043025E740F2545203
:1029D000934220D8A80C00F17D0E4FEA4E037C30C4
:1029E000B2E51032A4E6542A26D81A0B02F16F0180
:1029F00049006E3248E7BC68626822F0030205E7CE
:102A0000CAF30B0000287FF4A8AE4244BB6842F032
:102A100001025A60ECE6FE234FF07F0E7E2093E524
:102A200001224FF00009C1E604F10801304602F02E
:102A3000C5FBD9F80010DBE6B2F5AA7F05D8DA0BA2
:102A400002F17801490077321EE740F254518A4280
:102A500005D89A0C02F17D0149007C3214E7FE2171
:102A60007E2211E77B6884E7E808431C5B00F8E5F9
:102A700020000020704700BF704700BF38B5074CEA
:102A80000023054608462360FEF7A0FE431C00D045
:102A900038BD2368002BFBD02B6038BD140B002001
:102AA0000EB4F0B59CB021AB0F4953F8042B019341
:102AB00005466FF00044086802954FF402774FF620
:102AC000FF7602A90695ADF8147004940794ADF84A
:102AD000166000F00BF8029B00221A701CB0BDE8D3
:102AE000F04003B0704700BF580800202DE9F04FB8
:102AF000C1B00C46099115460E930A9002F046FCAF
:102B000003681793184603F05BF8A38916901E0616
:102B100003D52369002B01F01A8100231A46129372
:102B20002593249319930B93DFF864A4149230AB8C
:102B3000239399461592A84698F800304446EBB185
:102B4000252B02D11AE0252B03D014F8013F002BCE
:102B5000F9D1C8EB04058DB1249B259AC9F80080F2
:102B600001332A44072BC9F804502592249300F31B
:102B7000A68009F108090B9B2B440B932378002BAB
:102B800000F0A68000231A468DF86F3019460C938A
:102B900007934FF0FF3B637804F101085D4608F1AD
:102BA0000108A3F12000582800F22584DFE810F086
:102BB000880323042304900323042304230423040D
:102BC000230423049703A50323045D00E2002304E8
:102BD000FE000501050105010501050105010501CD
:102BE00005010501230423042304230423042304EF
:102BF00023042304230423041501810223048102F6
:102C00002304230423042304C60223042304CD0243
:102C100023042304230423042304F70223042304AA
:102C2000250323042304230423042304230423046B
:102C300023042304230466037903810281028102B1
:102C40008103790323042304D1032304DB03A300BA
:102C50006400EE032304F5032304AA0323042304DE
:102C6000BC030C980E9340420C90079B43F0040366
:102C7000079398F8003092E70E98AB46002104685D
:102C80008DF86F10071D0798302378228B458DF83B
:102C900070304FF000058DF8712040F00203C0F253
:102CA000C78320F0800343F00203079354EA05032F
:102CB0000E9700F093830F461192B348CEE223AAF9
:102CC00009990A9802F0EAFF48B90DF1C00952E7E4
:102CD000259B23B10A98099923AA02F0DFFF099BDB
:102CE0009B8913F0400F0B9B18BF4FF0FF33184622
:102CF00041B0BDE8F08F1193AB46002A41F033821A
:102D0000079A12F0200300F02E820E9F073727F05B
:102D10000703002703F10801BB450E91D3E90045E5
:102D20008DF86F70C0F2798722F08003079354EA20
:102D3000050300F0758330AEE20842EA4572E90807
:102D400004F007030D461446303354EA050206F832
:102D5000013DF1D1079AD10740F18480302B00F07A
:102D600081803022731E06F8012C30AAD21A0D92EF
:102D70001E467AE098F800302A2B08F1010401F091
:102D8000B981A3F13000092898BF002501F26C81B8
:102D900014F8013B05EB850500EB4505A3F1300078
:102DA0000928F5D945EAE575A046FAE6079B43F000
:102DB0008003079398F80030F1E6A3F13000002378
:102DC0001C4618F8013B04EB840400EB4404A3F117
:102DD00030000928F5D90C94E3E61193AB46002A9C
:102DE00041F0AB81079B43F010030793079B9806C4
:102DF00040F130850E9F073727F00707D7E90023FA
:102E000007F108010E9114461D46002A73F10003D4
:102E1000C0F25B85BBF1000F9DF86F70C0F2388582
:102E2000079B23F08003079354EA050300F0DB813E
:102E3000002D08BF0A2CC0F0DB8130AE20462946A9
:102E40000A22002303F0DEFA303206F8012D204674
:102E5000294600230A2203F0D5FA04460D4654EA17
:102E60000503EBD130AB9B1B0D930D9B5B45B8BFAE
:102E70005B4608930023139317B1089B0133089313
:102E8000079B13F002030F9302D0089B02330893B1
:102E9000079B13F08403109340F0D7820C9B089A91
:102EA0009D1A002D40F3D182102D2599249A374F79
:102EB00027DD189648461024B946099E2F460A9DDC
:102EC00004E0103F102F00F1080016DD01322F4BF7
:102ED00024921031072A259180E81800F1DD23AAF9
:102EE0003146284602F0DAFE00287FF4F8AE103FA3
:102EF000102F2599249A30A8E8DC189E3D464F46AD
:102F0000814601326C18072A25942492C9F8007072
:102F1000C9F8045000F328849DF86F7009F108097E
:102F200077B1249B013301340DF16F010122072B8E
:102F30002594249389E8060000F3A08309F1080989
:102F40000F9B6BB1249B013302341CA90222072B77
:102F50002594249389E8060000F39C8309F108096D
:102F6000109B802B00F0D5820D9BC3EB0B07002F2D
:102F700039DD074A249B0F92102F28DD22464FF09F
:102F8000100B0A9D099C0AE084670008A4670008EA
:102F900050670008103F102F09F1080916DD0133B2
:102FA0001032072B2592249389E8000CF2DD23AA26
:102FB0002146284602F072FE00287FF490AE103FB2
:102FC000102F259A249B0DF1C009E8DC144601332B
:102FD0000F9A24933C44072B259489E8840000F33E
:102FE000418309F10809079BDA0500F13082249B2F
:102FF0000D99C9F8006001330C44072B2594C9F8DA
:103000000410249300F3188309F10809079B59075A
:103010003FD50C9B089A9D1A002D3ADD102D249B5C
:10302000BC4F23DD22461026DDF828B0099C04E0C1
:10303000103D102D09F1080917DD0133B54924931E
:103040001032072B259289E84200F1DD23AA2146A0
:10305000584602F023FE00287FF441AE103D102DAB
:10306000259A249B0DF1C009E7DC144601332C445A
:10307000072B25942493C9F80070C9F8045008DD83
:1030800023AA09990A9802F009FE00287FF427AEC6
:10309000259C0B9B0C9A08998A42ACBF9B185B1825
:1030A0000B93002C40F0D482002324930DF1C0092F
:1030B00042E51193AB46002A41F051800E9F07373D
:1030C00027F0070303F108020E921A6814925B6856
:1030D0001593159B149D23F00044284621464FF07C
:1030E000FF328D4B03F050F9002840F0C28428468F
:1030F00021464FF0FF32884BFFF7E6F9002840F0F9
:10310000B8841498159900220023FFF7D3F90028FA
:1031100040F04F879DF86F70804E814B079921F0EA
:1031200080010791119903224FF0000B0892472963
:10313000D8BF1E460D92CDF84CB09DE6079B43F0DC
:103140000803079398F8003029E51193AB46002A4D
:1031500041F01180079B43F010030793079A12F088
:1031600020037FF4D2AD079911F0100200F02C85F6
:103170000E988DF86F30BBF1000F046800F1040762
:103180004FF00005C0F248850A4622F080020792FF
:1031900054EA05020E9700F043811F46CBE51193D8
:1031A000AB46002A40F0E387079B43F010030793E8
:1031B000079A12F0200300F032830E9F073727F0A2
:1031C0000703002703F10801BB450E91D3E9004531
:1031D0008DF86F70C0F25C8322F08003079354EA8D
:1031E00005037FF425AEBBF1000F00F0FE80002444
:1031F00040AE303406F8414D34E61193AB46002A18
:1032000040F09787079B47489D0640F197800E9FA7
:10321000073727F00703D3E9004503F108020E92B0
:10322000079A12F0010700F0418254EA050300F00A
:1032300005859DF844208DF871200027079A8DF8A8
:103240006F703023BB458DF8703042F00203C0F23E
:10325000B58622F0800343F00203079330AE2309C2
:1032600004F00F0143EA05732A091C461546435C26
:1032700006F8013D54EA0503F1D1F3E50E991193E7
:103280000A688DF8982000230A461F468DF86F3093
:10329000043201230893BB4613970E920D9326AE7A
:1032A000EEE51193AB46002A3FF4A0AD8DF86F1008
:1032B0009CE5079B43F04003079398F800306EE4C9
:1032C00098F8003000297FF46AAC0122202166E4DE
:1032D000079B43F00103079398F800305FE40E9CCE
:1032E00023680C9318460028234603F10403FFF6D5
:1032F000B8AC0E9398F8003051E498F800300122F1
:103300002B214CE41193AB46002A3FF451AF8DF8CA
:103310006F104DE7A4670008FFFFEF7F64670008A8
:1033200060670008706700081193AB46002A40F000
:103330002A87079B99489D063FF569AF079BDC06E6
:1033400040F135840E9A1346043314680E93002519
:1033500066E798F800306C2B00F0E284079840F0A4
:10336000100007901BE4002A40F00987079B9B068A
:1033700040F106840E9A0B991368CD170846043263
:1033800029460E92C3E90001FFF7D6BB079B43F025
:103390002003079398F8003001E40E9A1193166801
:1033A00000248DF86F40171D002E00F0CD85002DF4
:1033B000C0F218852A462146304601F0F9FF002860
:1033C00000F02A86831B0D93A34623EAE3730E972E
:1033D0000893CDF84CB09DF86F704DE56F48119291
:1033E000BBF1000F40F073815F464FF0000BCDF84A
:1033F00034B030AE39E51193002A40F0AC86119A12
:10340000002A3FF465AC002301211F4608918DF886
:1034100098208DF86F309B4613930D9126AE2FE5C3
:10342000BBF1000F00F0038600270024002582E492
:103430005A480793119254EA05030E974FF000077C
:103440007FF40CAF0024002508E7259C68E5119B5C
:10345000652B40F3A9801498159900220023FFF7EB
:103460001FF8002800F03581249B4D4AC9F8002040
:10347000013301340122072B25942493C9F8042039
:1034800000F3E88309F108091D9B129A934203DBBC
:10349000079BDB077FF5BAAD249B1699179AC9F8ED
:1034A000002001330C44072B2594C9F80410249301
:1034B00000F3408409F10809129B5D1E002D7FF77F
:1034C000A5AD384A249B0F92102D40F3E6811026BB
:1034D0000A9FDDF824B005E009F10809103D102D20
:1034E00040F3DB8101331034072B25942493C9F872
:1034F00000A0C9F80460EFDD23AA5946384602F05F
:10350000CDFB00287FF4EBAB259C249B0DF1C0097B
:10351000E4E70C9B089A9F1A002F7FF725AD214AFC
:10352000249B0F92102F2BDD4A462146B9461025C9
:1035300037460A9C099E06E0A9F11009B9F1100F5F
:1035400002F1080218DD01331031072B2591249375
:10355000C2F800A05560EFDD23AA3146204602F0F4
:103560009DFB00287FF4BBABA9F11009B9F1100F46
:103570002599249B30AAE6DC3E460C464F469146F0
:1035800001330F9A24933C44072B259489E8840047
:1035900000F3458209F10809E6E400BF84670008EA
:1035A000A067000850670008129B249D012B40F380
:1035B0000882013501340123072D25942495C9F88B
:1035C0000060C9F8043000F30D8209F10809169A69
:1035D000179BC9F8003001351444072D2594249514
:1035E000C9F8042000F30E8209F108090023149899
:1035F00015990022FEF754FF129B002840F0C3806B
:10360000013B013501361C44072D24952594C9F84A
:103610000060C9F8043000F3F58009F10809199A2F
:10362000C9F80420013514441FAB072D25942495B7
:10363000C9F800307FF7E8AC23AA09990A9802F08C
:103640002DFB00287FF44BAB259C0DF1C009DDE478
:1036500023AA09990A9802F021FB00283FF424AD1F
:10366000FFF73DBB23AA09990A9802F017FB00282F
:103670007FF435AB259C0DF1C009B4E423AA099968
:103680000A9802F00BFB00287FF429AB259C0DF172
:10369000C00955E423AA09990A9802F0FFFA002804
:1036A0007FF41DAB259C0DF1C00959E4BBF1000F5F
:1036B0008DF86F70C0F2DA8222F08003079354EA2B
:1036C00005037FF4CBADBBF1000F3FF48DAE0027B7
:1036D000B8E61D9D002D40F3CC82139B129A9342B5
:1036E000A8BF1346002B1D460DDD249BC9F80060C2
:1036F00001332C44072B2594C9F80450249300F37C
:10370000A38309F10809139B002DA8BF5B1B002BA5
:103710001D4640F3F680BA4A249B0F92102D40F3C9
:10372000808222461027DDF828B0099C05E009F1C7
:103730000809103D102D40F3738201331032072B1E
:1037400025922493C9F800A0C9F80470EFDD23AADC
:103750002146584602F0A2FA00287FF4C0AA259A12
:10376000249B0DF1C009E4E723AA09990A9802F005
:1037700095FA00287FF4B3AA9DF86F70259C0DF18F
:10378000C009FFF7CDBB5E1E002E7FF748AF9C4BF4
:103790000F93102E2CDDCDF834801027B046DDF8C5
:1037A00028B0099E06E0A8F11008B8F1100F09F141
:1037B00008091ADD01351034072D25942495C9F820
:1037C00000A0C9F80470EEDD23AA3146584602F085
:1037D00065FA00287FF483AAA8F11008B8F1100F49
:1037E000259C249D0DF1C009E4DC4646DDF83480BB
:1037F0000F9B01353444072D2594249589E8480012
:103800007FF70BAF23AA09990A9802F047FA00281C
:103810007FF465AA259C249D0DF1C009FFE6079958
:1038200011F0100200F008810E988DF86F30BBF196
:10383000000F046800F104074FF0000526DB0A467C
:1038400022F08002079254EA05020E971F467FF489
:10385000EFAAC8E4079BD9062AD4079B5A0627D5A6
:103860000E99B1F900400431E51722462B460E911E
:10387000FFF7CBBA0E998DF86F30BBF1000F0C68D3
:1038800001F104074FF0000580F245820E971F46B4
:1038900054EA05037FF4CCAAAAE401330F9A2493D7
:1038A0002C44072B259489E824007FF7ADABC3E6B1
:1038B0000E9A146813460433E51722460E93002A25
:1038C0002B4673F10003BFF6A5AA64424FF02D0703
:1038D00065EB4505BBF1000F8DF86F70FFF6A8AAE8
:1038E000079B23F080030793FFF7A2BA23AA099945
:1038F0000A9802F0D3F900287FF4F1A9259C0DF174
:10390000C009139A1D9B32441746129A934247DB13
:10391000079AD50744D412990E44F51BCB1A9D4241
:10392000A8BF1D46002D2E460DDD249AC9F8007053
:1039300001322C44072A2594C9F80450249200F33C
:10394000128309F10809002EACBF9D1B1D46002DF6
:103950007FF75CAB2A4A249B0F92102D9DDD102629
:103960000A9FDDF824B004E009F10809103D102D8C
:1039700093DD01331034072B25942493C9F800A05C
:10398000C9F80460F0DD23AA5946384602F086F9EA
:1039900000287FF4A4A9259C249B0DF1C009E5E72C
:1039A000249A16981799C9F8001001320444072A7E
:1039B0002594C9F80400249200F3A58209F10809AE
:1039C000A9E7079BD8073FF5F4AD01350134012382
:1039D000072D25942495C9F80060C9F804307FF7B5
:1039E0001CAE0FE723AA09990A9802F057F900289C
:1039F0007FF475A9259C249D0DF1C009E7E500BF62
:103A00005067000823AA09990A9802F047F900288C
:103A10007FF465A9259C249D0DF1C009E6E523AA44
:103A200009990A9802F03AF900287FF458A9259CD0
:103A30000DF1C009FFF798BA079911F040033FF460
:103A400019AF0E988DF86F200346BBF1000F03F1FC
:103A5000040304884FF00005C0F2B98121F0800111
:103A6000079154EA05010E9317467FF4E1A9FFF789
:103A7000BABB149C22462046159C2346214602F0E0
:103A800083FC002840F01583119BBBF1FF3F23F01E
:103A900020030D9300F07682472B00F09281079B64
:103AA00043F480731093159B1F1E149B0893BBBF98
:103AB0003B4603F1004700232D230F93119B662BF8
:103AC00000F06382462B00F05E810D9B089A452B27
:103AD00021A81EA90CBF0BF101055D4604900391BE
:103AE0001DA802213B460290019500910A9800F022
:103AF000EBFB119B672B064640F07D82079BDA07A4
:103B000040F1BF8274190898394600220023FEF75D
:103B1000C7FC002840F0A481219B9C4206D930219B
:103B20005A1C21921970219B9C42F9D89B1B12931D
:103B30000D9B472B00F08181119B652B40F36A821E
:103B4000119B662B1D9B139300F04782139A1299C9
:103B50008A42C0F23682079BD90700F1898222EAA5
:103B6000E2730D92672211920F9A002A40F05B8156
:103B70000893109B079393469DF86F70FFF77CB9ED
:103B8000079BDF060BD4079B5E0608D50E9A1368C9
:103B900004320E92BDF82C201A80FEF7CDBF0E9A8B
:103BA000136804320E920B9A1A60FEF7C5BF079B8A
:103BB0000E9A13F0400F134600F00E810433148860
:103BC0000E930025FFF72CBB079911F0400317D087
:103BD0000E988DF86F200346BBF1000F03F104032C
:103BE00004884FF00005C0F2F58021F080010791B4
:103BF00054EA05010E933FF413AC1746FFF79BB848
:103C00000E998DF86F30BBF1000F0C6801F10407BD
:103C10004FF0000580F281800E970027FFF78BB8E8
:103C2000144601330F9A24932C44072B259489E8DA
:103C300024003FF75BAE09F1080962E60027BB45A7
:103C40008DF86F70FFF6FEAB079B23F080030793A0
:103C5000FFF7C6BB23AA09990A9802F01FF80028AB
:103C60007FF43DA8259C0DF1C0090DE40E9FFFF7E0
:103C7000E2BB249BB14AC9F8002001330134012280
:103C8000072B25942493C9F804206FDC09F1080957
:103C90002DB9129B1BB9079BDF077FF5B7A9249BA2
:103CA0001699179AC9F8002001330C44072B259464
:103CB000C9F80410249300F3C98109F108096D4281
:103CC000002D40F3A3809E4A0F92102D40F32981CE
:103CD00022461027DDF828B0099C05E009F1080903
:103CE000103D102D40F31C8101331032072B25921B
:103CF0002493C9F800A0C9F80470EFDD23AA214677
:103D0000584601F0CBFF00287EF4E9AF259A249BAA
:103D10000DF1C009E4E7079A92E5079AFFF735BA73
:103D2000079B43F02003079308F1010898F800303F
:103D3000FEF735BF23AA09990A9801F0AFFF0028C2
:103D40007EF4CDAF259C0DF1C009FFF7B5BB402136
:103D50000A98FEF7D7FB099A10601061002800F05E
:103D6000F381099A40235361FEF7D7BE23AA09992C
:103D70000A9801F093FF00287EF4B1AF1D9D259CA9
:103D80000DF1C00984E721A81EA9049003911DA884
:103D900003210290089ACDF804B03B4600910A989E
:103DA00000F092FA5D460646119B462B06EB050491
:103DB0007FF4A9AE3378302B00F06D811D9D2C442B
:103DC000A1E6BBF1000F08BF4FF0010B67E60E93B1
:103DD00017465DE50E9320E7043314680E93002523
:103DE000FFF71EBA304601F0EBFEA34603460D90E6
:103DF000FFF7EBBA23AA09990A9801F04FFF0028B0
:103E00007EF46DAF259C249B0DF1C0091299C9F871
:103E1000006001330C44072B25942493C9F8041047
:103E20007FF7F2A808E42D270893109B07938DF8DD
:103E30006F704FF0000BFFF720B81D9BDD1C11DBEE
:103E40009B450FDB139381E623AA09990A9801F099
:103E500025FF00287EF443AF259C0DF1C00952E4F4
:103E6000234663E6119A023A1192013B002B9DF81A
:103E700044201D93B8BF5B428DF87C20B4BF2D2237
:103E80002B22092B8DF87D2040F3FD800DF18B0056
:103E900004462C4A82FB0321DA17C2EBA10202EB93
:103EA0008201A3EB410303F13001092A134604F810
:103EB000011DEEDC21463033DAB201F8012D8842D3
:103EC00040F23F810DF17E01234601E013F8012B02
:103ED00001F8012B9842F9D1431C1B1B0DF17E0206
:103EE00013441FAA9B1A129A1993012A13440D9383
:103EF00040F3F6800D9B169A134400220D93139203
:103F000023EAE37330E623AA09990A9801F0C6FE72
:103F100000287EF4E4AE1D9B259C0DF1C009FAE457
:103F2000144601330F9A24932C44072B259489E8D7
:103F300024003FF75FAF09F1080967E7A0670008B1
:103F40005067000867666666062D2B4628BF062365
:103F50000D9323EAE373B3460E97139637460893FF
:103F60008B4EFEF789BF23AA09990A9801F096FEA5
:103F700000287EF4B4AE1D9B129A259CD31A0DF135
:103F8000C009E0E44FF0060B89E521A81EA90490C2
:103F900003911DA803210290089ACDF804B03B4676
:103FA00000910A9800F090F95D46064600EB0B047C
:103FB00000E72D278DF86F70FFF7AEB80793FFF776
:103FC0004DB9169A129B1344139A0D93002A7FDD64
:103FD000672223EAE3731192C6E5002B40F3988031
:103FE000BBF1000F6BD1079AD40768D41A460D9223
:103FF00023EAE373B8E5119B472B7FF483AD079B5E
:10400000DB073FF5D1AE219B9B1B12930D9B472BEA
:104010003FF413AF1D9B28E725EAE5730E9708933D
:104020000D95834613909DF86F70FEF725BF079B93
:10403000DB075F4605D540AE302306F8413DFEF76D
:1040400011BFCDF834B030AEFEF70FBF23AA0999E7
:104050000A9801F023FE00287EF441AE1D9D259CA8
:10406000249B0DF1C0092AE6A0460025FEF799BD64
:10407000169A139B134467220D93119223EAE3735C
:1040800072E5219B52E5303330228DF87F308DF878
:104090007E2020AB25E70898394600220023FEF752
:1040A000FFF900287FF48AAEC5F101051D952C4467
:1040B00029E5384E384B9DF86F70FFF72FB8139BEA
:1040C000169A9D1805EB0B030D9323EAE3734BE55A
:1040D000139B0D9AC3F101031A4413460D9277E71F
:1040E000079B13F001037FF405AF13930D9B23EAA5
:1040F000E37339E50E9898F8013005680430002D17
:104100000E90A046BEF64BAD4FF0FF35FEF747BD13
:10411000BBF1000F02D1079BD80707D5169B5D1C8A
:1041200005EB0B030D9323EAE3731DE501230D93C8
:104130001AE58DF86F10FFF765B88DF86F10FEF770
:1041400051BE0DF17E03CCE60A9A0C2313604FF0AA
:10415000FF30FEF7CDBD8DF86F10FFF750B98DF829
:104160006F10FEF7ABBF8DF86F10FEF7C9BD8DF86D
:104170006F10FFF719B88DF86F10FEF7EBBF8DF8D1
:104180006F10FFF7F3B88DF86F10FFF7D2B800BFCC
:10419000986700086C6700086867000802690B6987
:1041A000934200F38D802DE9F04F03F1FF3801F1C8
:1041B000140700F1140B57F828205BF828304FEA59
:1041C000880483B00132B3FBF2F90BEB04030094D3
:1041D00007EB040A0193B9F1000F39D00025BC4662
:1041E000DE462B465CF8046BDEF80020B4B209FB17
:1041F0000455360C2C0C09FB0644ADB25B1BA6B271
:1042000013FA82F3C6EB124606EB23469BB243EA4F
:104210000643E2454EF8043B4FEA14454FEA264375
:10422000E0D2009B5BF8033093B9019C231F9B45B0
:104230000CD254F8043C4BB9A4F1080302E01A680C
:10424000043B1AB99B4508F1FF38F8D3C0F8108039
:10425000044601F09FFB00282EDB09F101095D46B1
:10426000002357F8041B28688AB29A1A090C12FA1C
:1042700080F2C1EB104303EB224391B241EA0341C8
:10428000BA4545F8041B4FEA2343EAD25BF82820DD
:104290000BEB880382B91A1F93450BD253F8042CF9
:1042A00042B9083B02E01A68043B1AB99B4508F181
:1042B000FF38F8D3C4F81080484603B0BDE8F08F4B
:1042C00000207047000000002DE9F04F016C97B00E
:1042D0008146239C92469B4649B1426C4A60012329
:1042E00093408B6001F074F90023C9F84030BBF1B2
:1042F000000FD84633DB00232360A54B1A4608EA9B
:104300000303934214D05046594600220023FEF77F
:10431000C7F8054648B3229A01231360249B002B5B
:1043200000F0C5809B481860013817B0BDE8F08FD9
:10433000229A42F20F731360BAF1000F00F0A280CC
:104340009548249B002BF0D0C378002B00F0B1805F
:1043500000F10803249A136017B0BDE8F08F012321
:104360002BF000482360C346C7E714AA15AB01929F
:10437000009352465B46484601F0B6FB5FEA18548C
:10438000089040F08880149D159C2C4404F2324320
:10439000202B40F39182C3F1400304F2124008FA4B
:1043A00003F82AFA00F040EA0800FDF79BFD01231C
:1043B000013CA1F1F87110930022784BFDF754FCF9
:1043C0006DA3D3E90023FDF703FE6DA3D3E900231A
:1043D000FDF74CFC064620460F46FDF793FD6AA309
:1043E000D3E90023FDF7F4FD02460B46304639467B
:1043F000FDF73CFC06460F4601F0DCFF002204906E
:10440000002330463946FEF755F8002840F0308248
:10441000049E162E00F22982614B03EBC603D3E9FA
:10442000000152465B46FEF763F8002800F049821F
:10443000731E049300230C932C1B631E029300F144
:10444000328200230593049B002BC0F22382029A40
:104450000B9311461944002302910A93209B092BC8
:1044600029D8052B40F35886043B20930025209B38
:10447000023B032B00F23586DFE813F02C03280201
:1044800037035904444B474AC8F31300002814BFAC
:104490001846104655E7CBF3130343F07F511095B0
:1044A0005046A4F2FF3441F44011149D84E73E4885
:1044B0003BE7C31C4EE70021C9F844104846209151
:1044C00001F060F84FF0FF330693209A0D9301231B
:1044D00007902192C9F840000993159B002BC0F268
:1044E000D180049A0E2A00F3CD802D4B03EBC2033A
:1044F000D3E90034CDE90234219B002BC0F20083C4
:1045000056465F4650465946DDE902AB52465B4689
:10451000FDF788FE01F04EFF0446FDF7F3FC52461E
:104520005B46FDF755FD0B46024639463046FDF722
:104530009BFB079D04F130032B70069B012B064665
:104540000F4605F1010562D00022184BFDF740FD32
:104550000022002306460F46FDF7A2FF00287ED169
:10456000CDF81490DDF818A0DDF81CB0DDE9028963
:1045700029E000BFAFF3008061436F63A787D23F9C
:10458000B3C8608B288AC63FFB799F501344D33F42
:104590000000F07FA1670008C06700080000F83F36
:1045A000C8670008B4670008A0670008000024403E
:1045B000FDF70EFD0022002306460F46FDF770FFB3
:1045C000002840F0B78342464B4630463946FDF757
:1045D00029FE01F0EFFE0446FDF794FC42464B46EF
:1045E000FDF7F6FC02460B4630463946FDF73CFB2C
:1045F00004F1300E05F801EBCBEB050ED64506466F
:104600000F464FF00002B04BD2D1DDF81490324685
:104610003B4630463946FDF729FB06460F46024623
:104620000B46DDE90201FDF745FF40B932463B4646
:10463000DDE90201FDF734FF88B1E3070FD515F876
:10464000014C079A6B1E04E09A4200F02C8413F888
:10465000014D392C03F10105F6D001341C70089985
:10466000484600F0B5FF0022049B2A70229A0133CD
:104670001360249B002B00F0A78307981D6017B0E0
:10468000BDE8F08F099A002A00F01281209A012AD1
:1046900040F35882069B0A9A5F1EBA42C0F2978383
:1046A000D71B069B002BC0F28A84059D069B059AAA
:1046B0001A440592029A01211A444846029201F0D6
:1046C0001FF8064665B1029900290B4608DDA9428C
:1046D000059AA8BF2B46D21AED1ACB1A059202935F
:1046E0000A9B002B40F3FC82099A002A00F0018209
:1046F000002F00F0FE8131463A46484601F0A2F80C
:10470000DDF82080014642460646484601F002F8A0
:1047100041460446484600F05BFF0A9BDB1B0A93B8
:1047200040F0E6810121484600F0EAFF0B9B8046FD
:10473000002B00F0198201461A46484601F082F823
:10474000209B012B804640F3F8820027D8F81030D8
:1047500008EB8303186900F085FFC0F12000029A7E
:10476000104410F01F0000F0F681C0F12003042B6C
:1047700040F3CA84059BC0F11C0003440593134613
:10478000034405440293059B002B05DD21461A4690
:10479000484601F0A7F80446029B002B05DD414680
:1047A0001A46484601F09EF880460C9B002B40F0CC
:1047B0007C82069B002B40F39582099B002B40F0E6
:1047C000F581DDF81CB0069F5D4602E000F00AFFAF
:1047D000044641462046FFF7E1FC00F1300A05F8A7
:1047E00001ABCBEB0503BB424FF00A024FF00003D5
:1047F00021464846EADB079B069A012AACBF9B1874
:1048000001331D464FF0000B21460122484601F0BE
:1048100069F84146089001F0BDF8002840F30D8387
:1048200015F8012C07996B1E04E08B4200F078828A
:1048300013F8012D392A03F10105F6D001321A705F
:104840004146484600F0C4FE002E3FF408AFBBF1DD
:10485000000F05D0B34503D05946484600F0B8FED6
:104860003146484600F0B4FEF9E601230C93E3E537
:10487000DDF810804046FDF745FB02460B4630460A
:104880003946FDF70DFE00287FF4C2AD08F1FF3375
:104890000493BDE5059A049BD21A5B420A93002358
:1048A00005920B93DAE55B42059300230293CAE578
:1048B0000A9F059D099E05E7C3F120080AFA08F042
:1048C00073E50C90B8E500BF000024400023099375
:1048D000049B219A13440D930133002B069340F35C
:1048E0008382069C26460021172EC9F844100BD956
:1048F000012204235B0003F11400B042114602F1CF
:104900000102F7D9C9F84410484600F03BFE0E2CCE
:104910000790C9F840003FF6E0AD002D3FF4DDAD53
:1049200004995746D8460029CDE90E7840F3928283
:10493000914B01F00F020E1103EBC203F006D3E915
:10494000004540F14C828D4B50465946D3E908232F
:10495000FDF768FC06F00F0682468B464FF0030811
:1049600086B1864FF10709D520462946D7E90023AD
:10497000FDF72EFB08F1010804460D46761007F1FD
:104980000807EFD122462B4650465946FDF74AFC10
:1049900006460F460C9B43B10022794B3046394600
:1049A000FDF788FD002840F020834046FDF7AAFA75
:1049B00032463B46FDF70CFB724B0022FDF756F9E1
:1049C000069B0446A1F15075002B00F0DF81049B8B
:1049D000DDF818801193099B002B00F09782664B3D
:1049E000694903EBC80353E902230020FDF71AFCD1
:1049F00022462B46FDF738F982468B46304639462B
:104A000001F0D8FC0446FDF77DFA02460B4630461D
:104A10003946FDF729F93034079DE4B206460F46C2
:104A20002C7002460B46504659460135FDF760FD95
:104A300000284CD132463B4600205149FDF714F97D
:104A400002460B4650465946FDF752FD002840F0FD
:104A50000D83B8F1010F40F3B381079B98440DE03B
:104A600000204749FDF700F952465B46FDF722FD5D
:104A7000002840F0FB82454500F0A281504659468F
:104A80000022424BFDF7A4FA0022404B82468B469F
:104A900030463946FDF79CFA0F46064601F08AFC7F
:104AA0000446FDF72FFA02460B4630463946FDF71D
:104AB000DBF83034E4B252465B4605F8014B06465B
:104AC0000F46FDF7F7FC32463B460028C8D0119B45
:104AD0000493C4E500230993219B002B40F38981B3
:104AE0001E461C460D930693FDE601230993F3E74A
:104AF00008940A9A0899484600F0A4FE044611E674
:104B0000069B002B3FF7FCAC40F0DA820022204BE2
:104B1000DDE90201FDF75CFA52465B46FDF7DEFC7B
:104B2000DDF818804646002800F0F280219B079DA2
:104B3000DB4304934146484600F04AFD002E3FF413
:104B40008EAD8DE6109A002A00F0418203F23343C5
:104B50000A9F059DABE51C20059B03440593029B22
:104B60000344054402930EE6209B012B40F382820E
:104B70000B9F0120F3E500BFC8670008A06800088C
:104B80000000F03F00001C400000E03F0000244017
:104B900000001440314600230A22484600F022FD5E
:104BA0000D9B002B064640F397820693002D05DDF2
:104BB00031462A46484600F095FE0646002F40F052
:104BC0007C810596069B079ADDF814B0013BD3184B
:104BD00008930AF0010309931746C246514620463E
:104BE000FFF7DCFA31460546204600F0D3FE5A4670
:104BF00002905146484600F0EDFEC268804605F13D
:104C00003003002A49D101462046069300F0C2FE37
:104C100041460590484600F0DBFC059A069B2AB900
:104C2000209919B90999002900F0368202990029C2
:104C3000C0F2E48005D1209919B90999002900F042
:104C4000DD80002A00F34D81089A3B7007F10108CE
:104C50009742454600F05481214600230A224846E7
:104C600000F0C0FC5E45044631464FF000034FF0B3
:104C70000A0248460BD000F0B5FC59460646002310
:104C80000A22484600F0AEFC47468346A6E700F0FD
:104C9000A9FC474606468346A0E7014648460593D9
:104CA00000F096FC0122059BC0E74146204600F03B
:104CB00071FE0028BFF67DAD2146049C0023013C17
:104CC0000A224846049400F08DFC099B0446002B00
:104CD0007FF460AF0D9B002B40F3F681069370E5E7
:104CE000089C1FE5209B022B7FF767AD069B002BDE
:104CF00040F0798141460522484600F073FC0146A8
:104D00008046204600F046FE002808947FF70EAF4C
:104D1000049A07993123013204920B704D1C09E764
:104D2000049A01320492079A3123137088E5012313
:104D30000993CDE5DDF8149091E4BAF1000F7FF40A
:104D400004ADCBF31303002B40F03F812BF0004761
:104D50003F0D3F0537B1059B01330593029B01339E
:104D6000029301270B9B0120002B3FF4F8ACEDE4EC
:104D70004046FDF7C7F832463B46FDF729F90022C9
:104D8000BF4BFCF773FF0446A1F15075304639461E
:104D90000022BC4BFCF768FF22462B4606460F4616
:104DA000FDF7A6FB8046002840F00581224605F16C
:104DB000004330463946FDF77DFB08B14646B5E66F
:104DC000DDE90EABFFF789BB0798FFF7AEBA0A9B88
:104DD0000B9A0A97FB1A1A440B92002761E4DDE94B
:104DE0000EAB4FF00208BBE51C460021C9F8441089
:104DF0008AE5012421940D940694F6E7002AD04612
:104E0000CDF814B09A4611DD21460122484600F043
:104E100069FD4146044600F0BDFD002840F349818C
:104E2000BAF1390F00F0068105F1310AB34687F86F
:104E300000A07D1C059E089402E504D11AF0010F24
:104E400001D0EDE4154615F8013C302B05F1FF3299
:104E5000F8D0F5E4049B5C42002C00F0BF808A4B44
:104E600004F00F0203EBC203D3E90023DDE90E01D6
:104E7000FDF7AEF8241106460F4600F02A81834D57
:104E80004FF00208E20709D530463946D5E900233C
:104E9000FDF79EF808F1010806460F46641005F17B
:104EA0000805EFD176E5079930220A70049A15F8C3
:104EB000014C01320492FFF7D0BB7168484600F004
:104EC00061FB33699A1C0546920006F10C010C3017
:104ED00000F0BEFA29460122484600F003FD059085
:104EE00070E6392BCDF814B0D04600F0A38003F162
:104EF000010AB34687F800A07D1C059E08949FE434
:104F00005A46D046B3469A4616467DE45E4908F1B5
:104F1000FF3A01EBCA0122462B46D1E90001FDF719
:104F200057F8CDE912013946304601F043FA0446FC
:104F3000FCF7E8FF02460B4630463946FCF794FE84
:104F4000079A3034B8F1010F06460F46147002F18B
:104F500001051ED0079B03EB080BA84600224C4B13
:104F600030463946FDF734F80F46064601F022FA7E
:104F70000446FCF7C7FF303402460B46304639463C
:104F8000FCF772FE08F8014BC34506460F46E5D113
:104F9000554400223F4BDDE91201FCF767FE324623
:104FA0003B46FDF787FA00284CD0119B049315F877
:104FB000014CFFF746BB4FF000084646A8E6059BAC
:104FC000069A9D1A0023FFF772BB0027CAE6149BBE
:104FD0000A9F059DC3F13603FFF769BBDDE90E6744
:104FE0004FF00208D6E40894A0E5069B002B3FF49E
:104FF000BFAE0D9B002B7FF7E3AE0022244B304663
:105000003946FCF7E5FF06460F4608F10100FCF7BC
:1050100079FF32463B46FCF7DBFF0022184BFCF7DA
:1050200025FE049ADDF83480013A0446A1F150755A
:105030001192D0E43922B3460894059E3A707D1C43
:10504000FFF7F0BBDDE9122300201249FCF70CFE4C
:1050500032463B46FDF74CFA08B9B1E6154615F85D
:10506000013C302B05F1FF32F8D030E5119B049361
:10507000FFF7E7BABAF1000F7FF47AAD61E600BF3F
:1050800000001C4000001440C8670008A068000829
:10509000000024400000E03F392BCDF814B0D0468A
:1050A000DDF808B09A46C5D0BBF1000F3FF7BCAEA3
:1050B000BCE67FF4BBAE1AF0010F3FF4B7AEAFE62B
:1050C0004FF00008464631E5209B022B21DC0D9B6A
:1050D00004E64FF002085DE4209B022B19DC0D9BD7
:1050E00063E50024C9F844402146484600F04AFAE6
:1050F0004FF0FF3306930D93012307902194C9F8D5
:1051000040000993FFF7E9B93FF43DABC0F13C0023
:1051100022E50D9B0693E9E50125FFF7A8B900BF3D
:10512000F8B5234F0C460646FDF7A4FCBB685D6846
:1051300025F00305291B01F6EF7121F47F6121F0B1
:105140000F01A1F58054B4F5805F07DB00213046E4
:10515000FDF794FCBB682B44984204D03046FDF721
:105160008BFC0020F8BD61423046FDF787FC013022
:105170000DD0104BBA6819682D1B45F0010530465B
:10518000091B55601960FDF777FC0120F8BD00216F
:105190003046FDF773FCBA68831A0F2BDEDD064C30
:1051A0000449246843F00103001B53600860D5E7FD
:1051B00020000020440A00202C040020002945D0B3
:1051C0002DE9F0410D468046FDF754FC55F8047C6E
:1051D0006A4927F00103A5F10804E2188E685068B7
:1051E000B24220F0030062D0FE0750600BD455F8A5
:1051F000087CE41B01F1080EA56875453B446FD09F
:10520000E768EF60BD6015186D68ED0742D543F0A3
:1052100001026260E350B3F5007F18D2DB085A1C2C
:105220004D6851F83270A76001209B1000FA03F31B
:1052300001EBC2001D430838E0604D6041F8324088
:10524000FC604046BDE8F041FDF716BC70475A0AC5
:10525000042A53D89A0902F139077F0002F1380570
:1052600001EB870051F827204449083890424DD07F
:10527000516821F003018B4202D292689042F7D12B
:10528000D068E060A2608460D4604046BDE8F04130
:10529000FDF7F2BB95683A4FBD4203443FD0D0685A
:1052A000E86043F0010285606260E350B3E7FF0706
:1052B000034407D455F8082CA41A1344A068E268E4
:1052C000C26090602F4A126843F001009342606010
:1052D0008C60B6D32C4B40461968FFF721FFB0E72E
:1052E00011184968C90744D49168D268CA60034458
:1052F00043F0010091606060E350A2E7142A17D8E0
:1053000002F15C077F0002F15B05A9E7AA104B6878
:10531000012505FA02F213434B600246B1E743F060
:1053200001024C610C61E560A5606260E35088E7B2
:10533000542A06D81A0B02F16F077F0002F16E059E
:105340008EE7B2F5AA7F06D8DA0B02F178077F0064
:1053500002F1770584E740F25450824206D89A0C55
:1053600002F17D077F0002F17C0579E7FE277E25AB
:1053700076E743F001026260E35062E7200000201C
:105380002800002028040020400A0020044A054B81
:105390001268506B002808BF1846F030704700BFF5
:1053A000580800205C0800200000000000000000F9
:1053B00001F0FF01102A2BDB10F0070F08D010F8C6
:1053C000013B013A8B422DD010F0070F42B3F6D1CA
:1053D000F0B441EA012141EA014122F007047FF0E3
:1053E00000070023F0E80256083C85EA010586EA3A
:1053F000010685FA47F5A3FA87F586FA47F6A5FA76
:1054000087F68EB9EED1F0BC01F0FF0102F0070281
:1054100032B110F8013B013A83EA010313B1F8D12C
:105420000020704701387047002D06BF354603380D
:10543000073815F0010F07D1013015F4807F02BF46
:10544000013015F4C03F0130F0BC0138704700BF97
:10545000844641EA000313F003036DD1403A41D37F
:1054600051F8043B40F8043B51F8043B40F8043B3E
:1054700051F8043B40F8043B51F8043B40F8043B2E
:1054800051F8043B40F8043B51F8043B40F8043B1E
:1054900051F8043B40F8043B51F8043B40F8043B0E
:1054A00051F8043B40F8043B51F8043B40F8043BFE
:1054B00051F8043B40F8043B51F8043B40F8043BEE
:1054C00051F8043B40F8043B51F8043B40F8043BDE
:1054D00051F8043B40F8043B51F8043B40F8043BCE
:1054E000403ABDD2303211D351F8043B40F8043B6E
:1054F00051F8043B40F8043B51F8043B40F8043BAE
:1055000051F8043B40F8043B103AEDD20C3205D37D
:1055100051F8043B40F8043B043AF9D2043208D075
:10552000D2071CBF11F8013B00F8013B01D30B88E7
:1055300003806046704700BF082A13D38B078DD0C5
:1055400010F003038AD0C3F10403D21ADB071CBF97
:1055500011F8013B00F8013B80D331F8023B20F801
:10556000023B7BE7043AD9D3013A11F8013B00F83A
:10557000013BF9D20B7803704B7843708B788370C2
:1055800060467047C36C70B505460C464BB153F886
:10559000240080B1026843F8242000230361C36023
:1055A00070BD2122042100F0F9FBE86403460028C5
:1055B000EDD1002070BD012101FA04F6721D2846CC
:1055C000920000F0EBFB0028F3D044608660E4E733
:1055D00031B1C36C4A6853F82200086043F82210C6
:1055E000704700BFF0B50C6983B00D46064601F167
:1055F000140E0027DEF8000081B202FB01310B0C13
:10560000000C02FB003389B2013701EB0341BC42BD
:105610004EF8041B4FEA1343ECDC3BB1AA689442FA
:1056200007DA05EB8402013453612C61284603B08C
:10563000F0BD6968019301313046FFF7A3FF2A6985
:10564000023205F10C01074692000C30FFF700FF13
:10565000F26C6968019B52F82100286042F82150E1
:105660003D46DEE7030C1B04B3B90004102310F021
:105670007F4F04BF0002083310F0704F04BF0001D9
:10568000043310F0404F04BF80000233002807DBD2
:10569000420003D4202070470023E8E7581C7047DD
:1056A00018467047036813F0070207D0D90720D4C3
:1056B0009A0720D49B0803600220704799B209B969
:1056C0001B0C102213F0FF0F04BF1B0A083219072E
:1056D00004BF1B090432990704BF9B080232D90793
:1056E00004D45B0801D120207047013203601046CA
:1056F0007047002070475B0803600120704700BFBF
:1057000010B50C460121FFF73DFF01224461026103
:1057100010BD00BF2DE9F04F0D691769BD4283B080
:105720000C46164604DA2A4634463D460E461746CF
:10573000A368616805EB07089845C8BF0131FFF70A
:1057400021FF00F1140C0CEB8809CC45009005D228
:105750006346002143F8041B9945FBD806F1140267
:1057600002EB870A04F11403524503EB850E54D271
:10577000CDF80490994652F8043B1FFA83FBBBF125
:10578000000F20D000204F466646054600E01E462A
:1057900057F8044B3068A1B283B20BFB0131240CE3
:1057A000000C4B190BFB040000EB134099B233467D
:1057B00041EA0041BE454FEA104543F8041BE6D8D4
:1057C000756052F8043C5FEA134B20D0DCF80030DF
:1057D000674618464D46002100E037462C88000CED
:1057E0000BFB040001449CB23E4644EA014346F8E8
:1057F000043B786855F8044B83B2240C0BFB04344B
:1058000004EB1143AE454FEA1341E6D87B60924565
:105810000CF1040CAFD8DDF80490B8F1000F0BDDEB
:1058200059F8043CA9F104091BB105E059F8043DFD
:1058300013B9B8F10108F9D10098C0F8108003B08D
:10584000BDE8F08F12F003032DE9F041144607463E
:105850002ED10E46A4101CD0BD6C95B3E3074FF0BB
:10586000000806D4641014D02868A8B10546E307E0
:10587000F8D52A4631463846FFF74CFFB6B1726874
:10588000FB6C641053F82210316043F82260064626
:10589000EAD13046BDE8F0812A4629463846FFF76E
:1058A00039FF2860C0F800800546E0E70646D9E7E2
:1058B0005A1E0B4D002355F82220FFF793FE064693
:1058C000C8E701213846FFF75DFE40F27121012251
:1058D0000023416102610546B8640360BEE700BF72
:1058E000906800082DE9F04791460A698B684FEAF5
:1058F000691404EB020808F101059D420E46824638
:10590000496804DD5B009D4201F10101FADC50466B
:10591000FFF738FE002C00F1140238DD02EB84039F
:10592000002142F8041B9342FBD1346906F11401B3
:1059300019F01F0901EB840E21D0C9F120020024C7
:105940000F6807FA09FC4CEA04049C4643F8044B30
:1059500051F8044B8E4524FA02F4F1D8CCF80440F7
:105960000CB108F10205DAF84C307268013D53F8C9
:1059700022100561316043F82260BDE8F087043BE6
:1059800051F8042B43F8042F8E45F9D8EBE7134662
:10599000CBE700BF02690B69D21A12D19B00143009
:1059A0001431194410B4034401E098420BD253F867
:1059B000044D51F8042D9442F7D007D3012010BCB8
:1059C000704710467047002010BC70474FF0FF3002
:1059D000F5E700BF2DE9F8430B690F4611695B1A23
:1059E000002B904617D1890007F1140208F1140525
:1059F0005318294401E09A425ED253F8046D51F8DD
:105A0000044DA642F7D060D23B46144647464FF0BD
:105A10000109984606E05DDB07F1140502F1140464
:105A20004FF000097968FFF7ADFDD8F810303E69F6
:105A3000C0F80C9004EB830CA64605EB860700F13A
:105A4000140400235EF8041B55F8048B8AB213FA81
:105A500088F3090C9A1AC1EB184303EB224392B264
:105A600042EA0342F44544F8042B4FEA2343E9D8C1
:105A7000AF4217D9A446294651F804EB13FA8EF227
:105A8000131403EB1E4392B242EA03428F424CF8D6
:105A9000042B4FEA2343EFD8ED433D4425F00305A3
:105AA00004352C44043C22B954F8043D013E002B3B
:105AB000FAD00661BDE8F8830021FFF763FD0122FB
:105AC000002302614361BDE8F8832C464FF00009D2
:105AD0001546A7E73B4607F1140408F114054746AD
